{
  "contractName": "TestUniswap",
  "abi": [
    {
      "inputs": [
        {
          "internalType": "uint256",
          "name": "_rateMult",
          "type": "uint256"
        },
        {
          "internalType": "uint256",
          "name": "_rateDiv",
          "type": "uint256"
        }
      ],
      "stateMutability": "nonpayable",
      "type": "constructor"
    },
    {
      "inputs": [],
      "name": "rateDiv",
      "outputs": [
        {
          "internalType": "uint256",
          "name": "",
          "type": "uint256"
        }
      ],
      "stateMutability": "view",
      "type": "function",
      "constant": true
    },
    {
      "inputs": [],
      "name": "rateMult",
      "outputs": [
        {
          "internalType": "uint256",
          "name": "",
          "type": "uint256"
        }
      ],
      "stateMutability": "view",
      "type": "function",
      "constant": true
    },
    {
      "inputs": [],
      "name": "WETH",
      "outputs": [
        {
          "internalType": "address",
          "name": "",
          "type": "address"
        }
      ],
      "stateMutability": "pure",
      "type": "function",
      "constant": true
    },
    {
      "inputs": [
        {
          "internalType": "uint256",
          "name": "amountOut",
          "type": "uint256"
        },
        {
          "internalType": "address[]",
          "name": "path",
          "type": "address[]"
        }
      ],
      "name": "getAmountsIn",
      "outputs": [
        {
          "internalType": "uint256[]",
          "name": "amounts",
          "type": "uint256[]"
        }
      ],
      "stateMutability": "view",
      "type": "function",
      "constant": true
    }
  ],
  "bytecode": "0x608060405234801561001057600080fd5b506040516103153803806103158339818101604052604081101561003357600080fd5b810190808051906020019092919080519060200190929190505050816000819055508060018190555050506102a88061006d6000396000f3fe608060405234801561001057600080fd5b506004361061004c5760003560e01c806314f38115146100515780631f00ca741461006f578063ad5c464814610147578063aec036a114610191575b600080fd5b6100596101af565b6040518082815260200191505060405180910390f35b6100f06004803603604081101561008557600080fd5b8101908080359060200190929190803590602001906401000000008111156100ac57600080fd5b8201836020820111156100be57600080fd5b803590602001918460208302840111640100000000831117156100e057600080fd5b90919293919293905050506101b5565b6040518080602001828103825283818151815260200191508051906020019060200280838360005b83811015610133578082015181840152602081019050610118565b505050509050019250505060405180910390f35b61014f610250565b604051808273ffffffffffffffffffffffffffffffffffffffff1673ffffffffffffffffffffffffffffffffffffffff16815260200191505060405180910390f35b61019961026c565b6040518082815260200191505060405180910390f35b60005481565b606080600267ffffffffffffffff811180156101d057600080fd5b506040519080825280602002602001820160405280156101ff5781602001602082028036833780820191505090505b50905060005460015486028161021157fe5b048160008151811061021f57fe5b602002602001018181525050848160018151811061023957fe5b602002602001018181525050809150509392505050565b600073d59378208fb5988d5db3cf3466febbce2a1935c0905090565b6001548156fea2646970667358221220c5c5d3588571c68bc38b251cd34385fa02eb90f7ffa70251629cba9ab442281064736f6c634300060a0033",
  "immutableReferences": {},
  "source": "pragma solidity ^0.6.10;\n\ncontract TestUniswap {\n    \n    uint public rateMult;\n    uint public rateDiv;\n    \n    constructor(uint _rateMult, uint _rateDiv) public {\n        rateMult = _rateMult; // eth price\n        rateDiv = _rateDiv; // token price\n    }\n    \n    function WETH() external pure returns (address) {\n        return 0xD59378208FB5988D5dB3cf3466fEbbce2a1935c0;\n    }\n    \n    function getAmountsIn(\n        uint amountOut, \n        address[] calldata path\n        ) \n        external \n        view \n        returns (uint[] memory amounts) {\n            \n        uint[] memory outAmounts = new uint[](2);\n        outAmounts[0] = amountOut * rateDiv / rateMult;\n        outAmounts[1] = amountOut;\n        \n        return outAmounts;\n    }\n\n}",
  "sourcePath": "/Users/johnpaulcas/Desktop/Workstation/XLoad/xload-contracts/contracts/helpers/TestUniswap.sol",
  "compiler": {
    "name": "solc",
    "version": "0.6.10+commit.00c0fcaf.Emscripten.clang"
  },
  "schemaVersion": "3.3.1",
  "updatedAt": "2020-12-11T08:18:03.320Z",
  "networkType": "ethereum",
  "devdoc": {
    "methods": {}
  },
  "userdoc": {
    "methods": {}
  }
}