{
  "contractName": "TokenPaymaster",
  "abi": [
    {
      "inputs": [
        {
          "internalType": "address",
          "name": "_uniswapAddress",
          "type": "address"
        },
        {
          "internalType": "address",
          "name": "_tokenAddress",
          "type": "address"
        }
      ],
      "stateMutability": "nonpayable",
      "type": "constructor"
    },
    {
      "anonymous": false,
      "inputs": [
        {
          "indexed": true,
          "internalType": "address",
          "name": "previousOwner",
          "type": "address"
        },
        {
          "indexed": true,
          "internalType": "address",
          "name": "newOwner",
          "type": "address"
        }
      ],
      "name": "OwnershipTransferred",
      "type": "event"
    },
    {
      "anonymous": false,
      "inputs": [
        {
          "indexed": false,
          "internalType": "address",
          "name": "payer",
          "type": "address"
        },
        {
          "indexed": false,
          "internalType": "uint256",
          "name": "tokenPreCharge",
          "type": "uint256"
        }
      ],
      "name": "PreCall",
      "type": "event"
    },
    {
      "anonymous": false,
      "inputs": [
        {
          "indexed": false,
          "internalType": "uint256",
          "name": "gasUseWithoutPost",
          "type": "uint256"
        },
        {
          "indexed": false,
          "internalType": "uint256",
          "name": "gasJustPost",
          "type": "uint256"
        },
        {
          "indexed": false,
          "internalType": "uint256",
          "name": "ethActualCharge",
          "type": "uint256"
        },
        {
          "indexed": false,
          "internalType": "uint256",
          "name": "tokenActualCharge",
          "type": "uint256"
        }
      ],
      "name": "TokensCharged",
      "type": "event"
    },
    {
      "inputs": [],
      "name": "FORWARDER_HUB_OVERHEAD",
      "outputs": [
        {
          "internalType": "uint256",
          "name": "",
          "type": "uint256"
        }
      ],
      "stateMutability": "view",
      "type": "function",
      "constant": true
    },
    {
      "inputs": [],
      "name": "PAYMASTER_ACCEPTANCE_BUDGET",
      "outputs": [
        {
          "internalType": "uint256",
          "name": "",
          "type": "uint256"
        }
      ],
      "stateMutability": "view",
      "type": "function",
      "constant": true
    },
    {
      "inputs": [],
      "name": "POST_RELAYED_CALL_GAS_LIMIT",
      "outputs": [
        {
          "internalType": "uint256",
          "name": "",
          "type": "uint256"
        }
      ],
      "stateMutability": "view",
      "type": "function",
      "constant": true
    },
    {
      "inputs": [],
      "name": "PRE_RELAYED_CALL_GAS_LIMIT",
      "outputs": [
        {
          "internalType": "uint256",
          "name": "",
          "type": "uint256"
        }
      ],
      "stateMutability": "view",
      "type": "function",
      "constant": true
    },
    {
      "inputs": [],
      "name": "_token",
      "outputs": [
        {
          "internalType": "contract IERC20",
          "name": "",
          "type": "address"
        }
      ],
      "stateMutability": "view",
      "type": "function",
      "constant": true
    },
    {
      "inputs": [],
      "name": "_uniswap",
      "outputs": [
        {
          "internalType": "contract IUniswap",
          "name": "",
          "type": "address"
        }
      ],
      "stateMutability": "view",
      "type": "function",
      "constant": true
    },
    {
      "inputs": [
        {
          "components": [
            {
              "components": [
                {
                  "internalType": "address",
                  "name": "from",
                  "type": "address"
                },
                {
                  "internalType": "address",
                  "name": "to",
                  "type": "address"
                },
                {
                  "internalType": "uint256",
                  "name": "value",
                  "type": "uint256"
                },
                {
                  "internalType": "uint256",
                  "name": "gas",
                  "type": "uint256"
                },
                {
                  "internalType": "uint256",
                  "name": "nonce",
                  "type": "uint256"
                },
                {
                  "internalType": "bytes",
                  "name": "data",
                  "type": "bytes"
                }
              ],
              "internalType": "struct IForwarder.ForwardRequest",
              "name": "request",
              "type": "tuple"
            },
            {
              "components": [
                {
                  "internalType": "uint256",
                  "name": "gasPrice",
                  "type": "uint256"
                },
                {
                  "internalType": "uint256",
                  "name": "pctRelayFee",
                  "type": "uint256"
                },
                {
                  "internalType": "uint256",
                  "name": "baseRelayFee",
                  "type": "uint256"
                },
                {
                  "internalType": "address",
                  "name": "relayWorker",
                  "type": "address"
                },
                {
                  "internalType": "address",
                  "name": "paymaster",
                  "type": "address"
                },
                {
                  "internalType": "bytes",
                  "name": "paymasterData",
                  "type": "bytes"
                },
                {
                  "internalType": "uint256",
                  "name": "clientId",
                  "type": "uint256"
                },
                {
                  "internalType": "address",
                  "name": "forwarder",
                  "type": "address"
                }
              ],
              "internalType": "struct GsnTypes.RelayData",
              "name": "relayData",
              "type": "tuple"
            }
          ],
          "internalType": "struct GsnTypes.RelayRequest",
          "name": "relayRequest",
          "type": "tuple"
        }
      ],
      "name": "_verifyForwarder",
      "outputs": [],
      "stateMutability": "view",
      "type": "function",
      "constant": true
    },
    {
      "inputs": [],
      "name": "gasUsedByPost",
      "outputs": [
        {
          "internalType": "uint256",
          "name": "",
          "type": "uint256"
        }
      ],
      "stateMutability": "view",
      "type": "function",
      "constant": true
    },
    {
      "inputs": [],
      "name": "getGasLimits",
      "outputs": [
        {
          "components": [
            {
              "internalType": "uint256",
              "name": "acceptanceBudget",
              "type": "uint256"
            },
            {
              "internalType": "uint256",
              "name": "preRelayedCallGasLimit",
              "type": "uint256"
            },
            {
              "internalType": "uint256",
              "name": "postRelayedCallGasLimit",
              "type": "uint256"
            }
          ],
          "internalType": "struct IPaymaster.GasLimits",
          "name": "limits",
          "type": "tuple"
        }
      ],
      "stateMutability": "view",
      "type": "function",
      "constant": true
    },
    {
      "inputs": [],
      "name": "getHubAddr",
      "outputs": [
        {
          "internalType": "address",
          "name": "",
          "type": "address"
        }
      ],
      "stateMutability": "view",
      "type": "function",
      "constant": true
    },
    {
      "inputs": [],
      "name": "getRelayHubDeposit",
      "outputs": [
        {
          "internalType": "uint256",
          "name": "",
          "type": "uint256"
        }
      ],
      "stateMutability": "view",
      "type": "function",
      "constant": true
    },
    {
      "inputs": [],
      "name": "owner",
      "outputs": [
        {
          "internalType": "address",
          "name": "",
          "type": "address"
        }
      ],
      "stateMutability": "view",
      "type": "function",
      "constant": true
    },
    {
      "inputs": [],
      "name": "renounceOwnership",
      "outputs": [],
      "stateMutability": "nonpayable",
      "type": "function"
    },
    {
      "inputs": [
        {
          "internalType": "contract IRelayHub",
          "name": "hub",
          "type": "address"
        }
      ],
      "name": "setRelayHub",
      "outputs": [],
      "stateMutability": "nonpayable",
      "type": "function"
    },
    {
      "inputs": [
        {
          "internalType": "contract IForwarder",
          "name": "forwarder",
          "type": "address"
        }
      ],
      "name": "setTrustedForwarder",
      "outputs": [],
      "stateMutability": "nonpayable",
      "type": "function"
    },
    {
      "inputs": [
        {
          "internalType": "address",
          "name": "newOwner",
          "type": "address"
        }
      ],
      "name": "transferOwnership",
      "outputs": [],
      "stateMutability": "nonpayable",
      "type": "function"
    },
    {
      "inputs": [],
      "name": "trustedForwarder",
      "outputs": [
        {
          "internalType": "contract IForwarder",
          "name": "",
          "type": "address"
        }
      ],
      "stateMutability": "view",
      "type": "function",
      "constant": true
    },
    {
      "inputs": [
        {
          "internalType": "uint256",
          "name": "amount",
          "type": "uint256"
        },
        {
          "internalType": "address payable",
          "name": "target",
          "type": "address"
        }
      ],
      "name": "withdrawRelayHubDepositTo",
      "outputs": [],
      "stateMutability": "nonpayable",
      "type": "function"
    },
    {
      "stateMutability": "payable",
      "type": "receive",
      "payable": true
    },
    {
      "inputs": [],
      "name": "versionPaymaster",
      "outputs": [
        {
          "internalType": "string",
          "name": "",
          "type": "string"
        }
      ],
      "stateMutability": "view",
      "type": "function",
      "constant": true
    },
    {
      "inputs": [
        {
          "internalType": "uint256",
          "name": "_gasUsedByPost",
          "type": "uint256"
        }
      ],
      "name": "setPostGasUsage",
      "outputs": [],
      "stateMutability": "nonpayable",
      "type": "function"
    },
    {
      "inputs": [
        {
          "components": [
            {
              "components": [
                {
                  "internalType": "address",
                  "name": "from",
                  "type": "address"
                },
                {
                  "internalType": "address",
                  "name": "to",
                  "type": "address"
                },
                {
                  "internalType": "uint256",
                  "name": "value",
                  "type": "uint256"
                },
                {
                  "internalType": "uint256",
                  "name": "gas",
                  "type": "uint256"
                },
                {
                  "internalType": "uint256",
                  "name": "nonce",
                  "type": "uint256"
                },
                {
                  "internalType": "bytes",
                  "name": "data",
                  "type": "bytes"
                }
              ],
              "internalType": "struct IForwarder.ForwardRequest",
              "name": "request",
              "type": "tuple"
            },
            {
              "components": [
                {
                  "internalType": "uint256",
                  "name": "gasPrice",
                  "type": "uint256"
                },
                {
                  "internalType": "uint256",
                  "name": "pctRelayFee",
                  "type": "uint256"
                },
                {
                  "internalType": "uint256",
                  "name": "baseRelayFee",
                  "type": "uint256"
                },
                {
                  "internalType": "address",
                  "name": "relayWorker",
                  "type": "address"
                },
                {
                  "internalType": "address",
                  "name": "paymaster",
                  "type": "address"
                },
                {
                  "internalType": "bytes",
                  "name": "paymasterData",
                  "type": "bytes"
                },
                {
                  "internalType": "uint256",
                  "name": "clientId",
                  "type": "uint256"
                },
                {
                  "internalType": "address",
                  "name": "forwarder",
                  "type": "address"
                }
              ],
              "internalType": "struct GsnTypes.RelayData",
              "name": "relayData",
              "type": "tuple"
            }
          ],
          "internalType": "struct GsnTypes.RelayRequest",
          "name": "relayRequest",
          "type": "tuple"
        }
      ],
      "name": "getPayer",
      "outputs": [
        {
          "internalType": "address",
          "name": "",
          "type": "address"
        }
      ],
      "stateMutability": "view",
      "type": "function",
      "constant": true
    },
    {
      "inputs": [
        {
          "components": [
            {
              "components": [
                {
                  "internalType": "address",
                  "name": "from",
                  "type": "address"
                },
                {
                  "internalType": "address",
                  "name": "to",
                  "type": "address"
                },
                {
                  "internalType": "uint256",
                  "name": "value",
                  "type": "uint256"
                },
                {
                  "internalType": "uint256",
                  "name": "gas",
                  "type": "uint256"
                },
                {
                  "internalType": "uint256",
                  "name": "nonce",
                  "type": "uint256"
                },
                {
                  "internalType": "bytes",
                  "name": "data",
                  "type": "bytes"
                }
              ],
              "internalType": "struct IForwarder.ForwardRequest",
              "name": "request",
              "type": "tuple"
            },
            {
              "components": [
                {
                  "internalType": "uint256",
                  "name": "gasPrice",
                  "type": "uint256"
                },
                {
                  "internalType": "uint256",
                  "name": "pctRelayFee",
                  "type": "uint256"
                },
                {
                  "internalType": "uint256",
                  "name": "baseRelayFee",
                  "type": "uint256"
                },
                {
                  "internalType": "address",
                  "name": "relayWorker",
                  "type": "address"
                },
                {
                  "internalType": "address",
                  "name": "paymaster",
                  "type": "address"
                },
                {
                  "internalType": "bytes",
                  "name": "paymasterData",
                  "type": "bytes"
                },
                {
                  "internalType": "uint256",
                  "name": "clientId",
                  "type": "uint256"
                },
                {
                  "internalType": "address",
                  "name": "forwarder",
                  "type": "address"
                }
              ],
              "internalType": "struct GsnTypes.RelayData",
              "name": "relayData",
              "type": "tuple"
            }
          ],
          "internalType": "struct GsnTypes.RelayRequest",
          "name": "relayRequest",
          "type": "tuple"
        },
        {
          "internalType": "bytes",
          "name": "signature",
          "type": "bytes"
        },
        {
          "internalType": "bytes",
          "name": "approvalData",
          "type": "bytes"
        },
        {
          "internalType": "uint256",
          "name": "maxPossibleGas",
          "type": "uint256"
        }
      ],
      "name": "preRelayedCall",
      "outputs": [
        {
          "internalType": "bytes",
          "name": "context",
          "type": "bytes"
        },
        {
          "internalType": "bool",
          "name": "revertOnRecipientRevert",
          "type": "bool"
        }
      ],
      "stateMutability": "nonpayable",
      "type": "function"
    },
    {
      "inputs": [
        {
          "internalType": "bytes",
          "name": "context",
          "type": "bytes"
        },
        {
          "internalType": "bool",
          "name": "success",
          "type": "bool"
        },
        {
          "internalType": "uint256",
          "name": "gasUseWithoutPost",
          "type": "uint256"
        },
        {
          "components": [
            {
              "internalType": "uint256",
              "name": "gasPrice",
              "type": "uint256"
            },
            {
              "internalType": "uint256",
              "name": "pctRelayFee",
              "type": "uint256"
            },
            {
              "internalType": "uint256",
              "name": "baseRelayFee",
              "type": "uint256"
            },
            {
              "internalType": "address",
              "name": "relayWorker",
              "type": "address"
            },
            {
              "internalType": "address",
              "name": "paymaster",
              "type": "address"
            },
            {
              "internalType": "bytes",
              "name": "paymasterData",
              "type": "bytes"
            },
            {
              "internalType": "uint256",
              "name": "clientId",
              "type": "uint256"
            },
            {
              "internalType": "address",
              "name": "forwarder",
              "type": "address"
            }
          ],
          "internalType": "struct GsnTypes.RelayData",
          "name": "relayData",
          "type": "tuple"
        }
      ],
      "name": "postRelayedCall",
      "outputs": [],
      "stateMutability": "nonpayable",
      "type": "function"
    },
    {
      "inputs": [],
      "name": "getTokenBalance",
      "outputs": [
        {
          "internalType": "uint256",
          "name": "",
          "type": "uint256"
        }
      ],
      "stateMutability": "view",
      "type": "function",
      "constant": true
    },
    {
      "inputs": [
        {
          "internalType": "address",
          "name": "account",
          "type": "address"
        },
        {
          "internalType": "uint256",
          "name": "amount",
          "type": "uint256"
        }
      ],
      "name": "withdrawToken",
      "outputs": [],
      "stateMutability": "nonpayable",
      "type": "function"
    },
    {
      "inputs": [
        {
          "internalType": "uint256",
          "name": "ethValue",
          "type": "uint256"
        }
      ],
      "name": "getTokenToEthOutputPrice",
      "outputs": [
        {
          "internalType": "uint256",
          "name": "",
          "type": "uint256"
        }
      ],
      "stateMutability": "view",
      "type": "function",
      "constant": true
    }
  ],
  "bytecode": "0x60806040523480156200001157600080fd5b50604051620039f0380380620039f0833981810160405281019062000037919062000190565b6000620000496200017160201b60201c565b9050806000806101000a81548173ffffffffffffffffffffffffffffffffffffffff021916908373ffffffffffffffffffffffffffffffffffffffff1602179055508073ffffffffffffffffffffffffffffffffffffffff16600073ffffffffffffffffffffffffffffffffffffffff167f8be0079c531659141344cd1fd0a4f28419497f9722a3daafe3b4186f6b6457e060405160405180910390a35081600360006101000a81548173ffffffffffffffffffffffffffffffffffffffff021916908373ffffffffffffffffffffffffffffffffffffffff16021790555080600460006101000a81548173ffffffffffffffffffffffffffffffffffffffff021916908373ffffffffffffffffffffffffffffffffffffffff16021790555050506200021f565b600033905090565b6000815190506200018a8162000205565b92915050565b60008060408385031215620001a457600080fd5b6000620001b48582860162000179565b9250506020620001c78582860162000179565b9150509250929050565b6000620001de82620001e5565b9050919050565b600073ffffffffffffffffffffffffffffffffffffffff82169050919050565b6200021081620001d1565b81146200021c57600080fd5b50565b6137c1806200022f6000396000f3fe6080604052600436106101855760003560e01c80639e281a98116100d1578063da7422281161008a578063e5c1244611610064578063e5c1244614610665578063ecd0c0c3146106a3578063f2fde38b146106ce578063f9c002f7146106f7576102ac565b8063da742228146105d4578063df463a66146105fd578063e3712d6614610628576102ac565b80639e281a98146104d65780639ea09211146104ff578063ad12e50e14610528578063b860e12d14610553578063b90b41cf1461057e578063bbdaa3c9146105a9576102ac565b806374e861d61161013e57806382b2e2571161011857806382b2e2571461042c5780638da5cb5b146104575780638e9483b014610482578063921276ea146104ab576102ac565b806374e861d6146103ad5780637bb05264146103d85780637da0a87714610401576102ac565b80632640f62c146102b15780632afe31c1146102ee5780632d14c4b7146103195780635ea54eee146103425780636d7c3e2b1461036d578063715018a614610396576102ac565b366102ac57600073ffffffffffffffffffffffffffffffffffffffff16600160009054906101000a900473ffffffffffffffffffffffffffffffffffffffff1673ffffffffffffffffffffffffffffffffffffffff16141561021c576040517f08c379a000000000000000000000000000000000000000000000000000000000815260040161021390613101565b60405180910390fd5b600160009054906101000a900473ffffffffffffffffffffffffffffffffffffffff1673ffffffffffffffffffffffffffffffffffffffff1663aa67c91934306040518363ffffffff1660e01b81526004016102789190612edd565b6000604051808303818588803b15801561029157600080fd5b505af11580156102a5573d6000803e3d6000fd5b5050505050005b600080fd5b3480156102bd57600080fd5b506102d860048036038101906102d391906125bc565b610722565b6040516102e5919061323e565b60405180910390f35b3480156102fa57600080fd5b50610303610995565b604051610310919061323e565b60405180910390f35b34801561032557600080fd5b50610340600480360381019061033b919061260e565b610a47565b005b34801561034e57600080fd5b50610357610b6f565b6040516103649190613201565b60405180910390f35b34801561037957600080fd5b50610394600480360381019061038f91906125bc565b610ba4565b005b3480156103a257600080fd5b506103ab610c44565b005b3480156103b957600080fd5b506103c2610d99565b6040516103cf9190612ec2565b60405180910390f35b3480156103e457600080fd5b506103ff60048036038101906103fa919061249f565b610dc3565b005b34801561040d57600080fd5b50610416610e9d565b6040516104239190613049565b60405180910390f35b34801561043857600080fd5b50610441610ec3565b60405161044e919061323e565b60405180910390f35b34801561046357600080fd5b5061046c610f75565b6040516104799190612ec2565b60405180910390f35b34801561048e57600080fd5b506104a960048036038101906104a491906123de565b610f9e565b005b3480156104b757600080fd5b506104c0611290565b6040516104cd919061307f565b60405180910390f35b3480156104e257600080fd5b506104fd60048036038101906104f89190612338565b6112cd565b005b34801561050b57600080fd5b50610526600480360381019061052191906124c8565b61150a565b005b34801561053457600080fd5b5061053d6115c7565b60405161054a919061323e565b60405180910390f35b34801561055f57600080fd5b506105686115cd565b6040516105759190613064565b60405180910390f35b34801561058a57600080fd5b506105936115f3565b6040516105a0919061323e565b60405180910390f35b3480156105b557600080fd5b506105be6115f9565b6040516105cb919061323e565b60405180910390f35b3480156105e057600080fd5b506105fb60048036038101906105f69190612476565b611600565b005b34801561060957600080fd5b506106126116da565b60405161061f919061323e565b60405180910390f35b34801561063457600080fd5b5061064f600480360381019061064a91906124c8565b6116e5565b60405161065c9190612ec2565b60405180910390f35b34801561067157600080fd5b5061068c60048036038101906106879190612509565b611710565b60405161069a929190612ffe565b60405180910390f35b3480156106af57600080fd5b506106b86118d9565b6040516106c5919061302e565b60405180910390f35b3480156106da57600080fd5b506106f560048036038101906106f0919061220e565b6118ff565b005b34801561070357600080fd5b5061070c611ac3565b604051610719919061323e565b60405180910390f35b60006060600267ffffffffffffffff8111801561073e57600080fd5b5060405190808252806020026020018201604052801561076d5781602001602082028036833780820191505090505b509050600460009054906101000a900473ffffffffffffffffffffffffffffffffffffffff16816000815181106107a057fe5b602002602001019073ffffffffffffffffffffffffffffffffffffffff16908173ffffffffffffffffffffffffffffffffffffffff1681525050600360009054906101000a900473ffffffffffffffffffffffffffffffffffffffff1673ffffffffffffffffffffffffffffffffffffffff1663ad5c46486040518163ffffffff1660e01b815260040160206040518083038186803b15801561084257600080fd5b505afa158015610856573d6000803e3d6000fd5b505050506040513d601f19601f8201168201806040525081019061087a9190612237565b8160018151811061088757fe5b602002602001019073ffffffffffffffffffffffffffffffffffffffff16908173ffffffffffffffffffffffffffffffffffffffff16815250506060600360009054906101000a900473ffffffffffffffffffffffffffffffffffffffff1673ffffffffffffffffffffffffffffffffffffffff16631f00ca7485846040518363ffffffff1660e01b8152600401610920929190613282565b60006040518083038186803b15801561093857600080fd5b505afa15801561094c573d6000803e3d6000fd5b505050506040513d6000823e3d601f19601f820116820180604052508101906109759190612374565b90508060008151811061098457fe5b602002602001015192505050919050565b6000600160009054906101000a900473ffffffffffffffffffffffffffffffffffffffff1673ffffffffffffffffffffffffffffffffffffffff166370a08231306040518263ffffffff1660e01b81526004016109f29190612edd565b60206040518083038186803b158015610a0a57600080fd5b505afa158015610a1e573d6000803e3d6000fd5b505050506040513d601f19601f82011682018060405250810190610a4291906125e5565b905090565b610a4f611aca565b73ffffffffffffffffffffffffffffffffffffffff166000809054906101000a900473ffffffffffffffffffffffffffffffffffffffff1673ffffffffffffffffffffffffffffffffffffffff1614610add576040517f08c379a0000000000000000000000000000000000000000000000000000000008152600401610ad4906131c1565b60405180910390fd5b600160009054906101000a900473ffffffffffffffffffffffffffffffffffffffff1673ffffffffffffffffffffffffffffffffffffffff1662f714ce83836040518363ffffffff1660e01b8152600401610b39929190613259565b600060405180830381600087803b158015610b5357600080fd5b505af1158015610b67573d6000803e3d6000fd5b505050505050565b610b77611fed565b604051806060016040528061c350620186a0018152602001620186a081526020016201adb0815250905090565b610bac611aca565b73ffffffffffffffffffffffffffffffffffffffff166000809054906101000a900473ffffffffffffffffffffffffffffffffffffffff1673ffffffffffffffffffffffffffffffffffffffff1614610c3a576040517f08c379a0000000000000000000000000000000000000000000000000000000008152600401610c31906131c1565b60405180910390fd5b8060058190555050565b610c4c611aca565b73ffffffffffffffffffffffffffffffffffffffff166000809054906101000a900473ffffffffffffffffffffffffffffffffffffffff1673ffffffffffffffffffffffffffffffffffffffff1614610cda576040517f08c379a0000000000000000000000000000000000000000000000000000000008152600401610cd1906131c1565b60405180910390fd5b600073ffffffffffffffffffffffffffffffffffffffff166000809054906101000a900473ffffffffffffffffffffffffffffffffffffffff1673ffffffffffffffffffffffffffffffffffffffff167f8be0079c531659141344cd1fd0a4f28419497f9722a3daafe3b4186f6b6457e060405160405180910390a360008060006101000a81548173ffffffffffffffffffffffffffffffffffffffff021916908373ffffffffffffffffffffffffffffffffffffffff160217905550565b6000600160009054906101000a900473ffffffffffffffffffffffffffffffffffffffff16905090565b610dcb611aca565b73ffffffffffffffffffffffffffffffffffffffff166000809054906101000a900473ffffffffffffffffffffffffffffffffffffffff1673ffffffffffffffffffffffffffffffffffffffff1614610e59576040517f08c379a0000000000000000000000000000000000000000000000000000000008152600401610e50906131c1565b60405180910390fd5b80600160006101000a81548173ffffffffffffffffffffffffffffffffffffffff021916908373ffffffffffffffffffffffffffffffffffffffff16021790555050565b600260009054906101000a900473ffffffffffffffffffffffffffffffffffffffff1681565b6000600460009054906101000a900473ffffffffffffffffffffffffffffffffffffffff1673ffffffffffffffffffffffffffffffffffffffff166370a08231306040518263ffffffff1660e01b8152600401610f209190612edd565b60206040518083038186803b158015610f3857600080fd5b505afa158015610f4c573d6000803e3d6000fd5b505050506040513d601f19601f82011682018060405250810190610f7091906125e5565b905090565b60008060009054906101000a900473ffffffffffffffffffffffffffffffffffffffff16905090565b610fa6610d99565b73ffffffffffffffffffffffffffffffffffffffff163373ffffffffffffffffffffffffffffffffffffffff1614611013576040517f08c379a000000000000000000000000000000000000000000000000000000000815260040161100a906131a1565b60405180910390fd5b60008086868101906110259190612260565b925050915060008090506000600160009054906101000a900473ffffffffffffffffffffffffffffffffffffffff1673ffffffffffffffffffffffffffffffffffffffff166386a16f8f61108460055489611ad290919063ffffffff16565b876040518363ffffffff1660e01b81526004016110a29291906132b2565b60206040518083038186803b1580156110ba57600080fd5b505afa1580156110ce573d6000803e3d6000fd5b505050506040513d601f19601f820116820180604052508101906110f291906125e5565b905060003073ffffffffffffffffffffffffffffffffffffffff16632640f62c6111258486611ad290919063ffffffff16565b6040518263ffffffff1660e01b8152600401611141919061323e565b60206040518083038186803b15801561115957600080fd5b505afa15801561116d573d6000803e3d6000fd5b505050506040513d601f19601f8201168201806040525081019061119191906125e5565b9050600460009054906101000a900473ffffffffffffffffffffffffffffffffffffffff1673ffffffffffffffffffffffffffffffffffffffff166323b872dd8630846040518463ffffffff1660e01b81526004016111f293929190612ef8565b602060405180830381600087803b15801561120c57600080fd5b505af1158015611220573d6000803e3d6000fd5b505050506040513d601f19601f8201168201806040525081019061124491906123b5565b507fb3d69ff8981e297b4ab7fb9ba8e8a080ffebbee9f273bfa2d10116a82368304587600554848460405161127c94939291906132e2565b60405180910390a150505050505050505050565b60606040518060400160405280600581526020017f322e302e31000000000000000000000000000000000000000000000000000000815250905090565b6112d5611aca565b73ffffffffffffffffffffffffffffffffffffffff166000809054906101000a900473ffffffffffffffffffffffffffffffffffffffff1673ffffffffffffffffffffffffffffffffffffffff1614611363576040517f08c379a000000000000000000000000000000000000000000000000000000000815260040161135a906131c1565b60405180910390fd5b6000600460009054906101000a900473ffffffffffffffffffffffffffffffffffffffff1673ffffffffffffffffffffffffffffffffffffffff166370a08231306040518263ffffffff1660e01b81526004016113c09190612edd565b60206040518083038186803b1580156113d857600080fd5b505afa1580156113ec573d6000803e3d6000fd5b505050506040513d601f19601f8201168201806040525081019061141091906125e5565b905080821115611455576040517f08c379a000000000000000000000000000000000000000000000000000000000815260040161144c906130e1565b60405180910390fd5b600460009054906101000a900473ffffffffffffffffffffffffffffffffffffffff1673ffffffffffffffffffffffffffffffffffffffff1663a9059cbb84846040518363ffffffff1660e01b81526004016114b2929190612f9e565b602060405180830381600087803b1580156114cc57600080fd5b505af11580156114e0573d6000803e3d6000fd5b505050506040513d601f19601f8201168201806040525081019061150491906123b5565b50505050565b80806020019061151a919061334b565b60e001602081019061152c919061220e565b73ffffffffffffffffffffffffffffffffffffffff16600260009054906101000a900473ffffffffffffffffffffffffffffffffffffffff1673ffffffffffffffffffffffffffffffffffffffff16146115bb576040517f08c379a00000000000000000000000000000000000000000000000000000000081526004016115b290613141565b60405180910390fd5b6115c481611b27565b50565b60055481565b600360009054906101000a900473ffffffffffffffffffffffffffffffffffffffff1681565b61c35081565b6201adb081565b611608611aca565b73ffffffffffffffffffffffffffffffffffffffff166000809054906101000a900473ffffffffffffffffffffffffffffffffffffffff1673ffffffffffffffffffffffffffffffffffffffff1614611696576040517f08c379a000000000000000000000000000000000000000000000000000000000815260040161168d906131c1565b60405180910390fd5b80600260006101000a81548173ffffffffffffffffffffffffffffffffffffffff021916908373ffffffffffffffffffffffffffffffffffffffff16021790555050565b61c350620186a00181565b60008180600001906116f79190613327565b6000016020810190611709919061220e565b9050919050565b6060600061171c610d99565b73ffffffffffffffffffffffffffffffffffffffff163373ffffffffffffffffffffffffffffffffffffffff1614611789576040517f08c379a0000000000000000000000000000000000000000000000000000000008152600401611780906131a1565b60405180910390fd5b6000806117b9600460009054906101000a900473ffffffffffffffffffffffffffffffffffffffff168b87611d28565b915091506000806000806000808c8c8101906117d591906122af565b955095509550955095509550600460009054906101000a900473ffffffffffffffffffffffffffffffffffffffff1673ffffffffffffffffffffffffffffffffffffffff1663d505accf873088888888886040518863ffffffff1660e01b81526004016118489796959493929190612f2f565b600060405180830381600087803b15801561186257600080fd5b505af1158015611876573d6000803e3d6000fd5b505050508787600460009054906101000a900473ffffffffffffffffffffffffffffffffffffffff166040516020016118b193929190612fc7565b6040516020818303038152906040526000995099505050505050505050965096945050505050565b600460009054906101000a900473ffffffffffffffffffffffffffffffffffffffff1681565b611907611aca565b73ffffffffffffffffffffffffffffffffffffffff166000809054906101000a900473ffffffffffffffffffffffffffffffffffffffff1673ffffffffffffffffffffffffffffffffffffffff1614611995576040517f08c379a000000000000000000000000000000000000000000000000000000000815260040161198c906131c1565b60405180910390fd5b600073ffffffffffffffffffffffffffffffffffffffff168173ffffffffffffffffffffffffffffffffffffffff161415611a05576040517f08c379a00000000000000000000000000000000000000000000000000000000081526004016119fc906130c1565b60405180910390fd5b8073ffffffffffffffffffffffffffffffffffffffff166000809054906101000a900473ffffffffffffffffffffffffffffffffffffffff1673ffffffffffffffffffffffffffffffffffffffff167f8be0079c531659141344cd1fd0a4f28419497f9722a3daafe3b4186f6b6457e060405160405180910390a3806000806101000a81548173ffffffffffffffffffffffffffffffffffffffff021916908373ffffffffffffffffffffffffffffffffffffffff16021790555050565b620186a081565b600033905090565b600080828401905083811015611b1d576040517f08c379a0000000000000000000000000000000000000000000000000000000008152600401611b1490613121565b60405180910390fd5b8091505092915050565b60006060828060000190611b3b9190613327565b6020016020810190611b4d919061220e565b73ffffffffffffffffffffffffffffffffffffffff1663572b6c0560e01b848060200190611b7b919061334b565b60e0016020810190611b8d919061220e565b604051602401611b9d9190612ec2565b604051602081830303815290604052907bffffffffffffffffffffffffffffffffffffffffffffffffffffffff19166020820180517bffffffffffffffffffffffffffffffffffffffffffffffffffffffff8381831617835250505050604051611c079190612eab565b600060405180830381855afa9150503d8060008114611c42576040519150601f19603f3d011682016040523d82523d6000602084013e611c47565b606091505b509150915081611c8c576040517f08c379a0000000000000000000000000000000000000000000000000000000008152600401611c8390613181565b60405180910390fd5b6020815114611cd0576040517f08c379a0000000000000000000000000000000000000000000000000000000008152600401611cc790613161565b60405180910390fd5b80806020019051810190611ce491906123b5565b611d23576040517f08c379a0000000000000000000000000000000000000000000000000000000008152600401611d1a906130a1565b60405180910390fd5b505050565b6000803073ffffffffffffffffffffffffffffffffffffffff1663e3712d66856040518263ffffffff1660e01b8152600401611d64919061321c565b60206040518083038186803b158015611d7c57600080fd5b505afa158015611d90573d6000803e3d6000fd5b505050506040513d601f19601f82011682018060405250810190611db49190612237565b91506000600160009054906101000a900473ffffffffffffffffffffffffffffffffffffffff1673ffffffffffffffffffffffffffffffffffffffff166386a16f8f85878060200190611e07919061334b565b6040518363ffffffff1660e01b8152600401611e249291906132b2565b60206040518083038186803b158015611e3c57600080fd5b505afa158015611e50573d6000803e3d6000fd5b505050506040513d601f19601f82011682018060405250810190611e7491906125e5565b9050848060000190611e869190613327565b60400135810190503073ffffffffffffffffffffffffffffffffffffffff16632640f62c826040518263ffffffff1660e01b8152600401611ec7919061323e565b60206040518083038186803b158015611edf57600080fd5b505afa158015611ef3573d6000803e3d6000fd5b505050506040513d601f19601f82011682018060405250810190611f1791906125e5565b91508573ffffffffffffffffffffffffffffffffffffffff166370a08231846040518263ffffffff1660e01b8152600401611f529190612ec2565b60206040518083038186803b158015611f6a57600080fd5b505afa158015611f7e573d6000803e3d6000fd5b505050506040513d601f19601f82011682018060405250810190611fa291906125e5565b821115611fe4576040517f08c379a0000000000000000000000000000000000000000000000000000000008152600401611fdb906131e1565b60405180910390fd5b50935093915050565b60405180606001604052806000815260200160008152602001600081525090565b60008135905061201d816136bc565b92915050565b600081519050612032816136bc565b92915050565b600081359050612047816136d3565b92915050565b600082601f83011261205e57600080fd5b815161207161206c8261339d565b613370565b9150818183526020840193506020810190508385602084028201111561209657600080fd5b60005b838110156120c657816120ac88826121e4565b845260208401935060208301925050600181019050612099565b5050505092915050565b6000813590506120df816136ea565b92915050565b6000815190506120f4816136ea565b92915050565b60008135905061210981613701565b92915050565b60008083601f84011261212157600080fd5b8235905067ffffffffffffffff81111561213a57600080fd5b60208301915083600182028301111561215257600080fd5b9250929050565b60008135905061216881613718565b92915050565b60008135905061217d8161372f565b92915050565b60008135905061219281613746565b92915050565b600061010082840312156121ab57600080fd5b81905092915050565b6000604082840312156121c657600080fd5b81905092915050565b6000813590506121de8161375d565b92915050565b6000815190506121f38161375d565b92915050565b60008135905061220881613774565b92915050565b60006020828403121561222057600080fd5b600061222e8482850161200e565b91505092915050565b60006020828403121561224957600080fd5b600061225784828501612023565b91505092915050565b60008060006060848603121561227557600080fd5b600061228386828701612038565b9350506020612294868287016121cf565b92505060406122a586828701612159565b9150509250925092565b60008060008060008060c087890312156122c857600080fd5b60006122d689828a01612038565b96505060206122e789828a016121cf565b95505060406122f889828a016121cf565b945050606061230989828a016121f9565b935050608061231a89828a016120fa565b92505060a061232b89828a016120fa565b9150509295509295509295565b6000806040838503121561234b57600080fd5b60006123598582860161200e565b925050602061236a858286016121cf565b9150509250929050565b60006020828403121561238657600080fd5b600082015167ffffffffffffffff8111156123a057600080fd5b6123ac8482850161204d565b91505092915050565b6000602082840312156123c757600080fd5b60006123d5848285016120e5565b91505092915050565b6000806000806000608086880312156123f657600080fd5b600086013567ffffffffffffffff81111561241057600080fd5b61241c8882890161210f565b9550955050602061242f888289016120d0565b9350506040612440888289016121cf565b925050606086013567ffffffffffffffff81111561245d57600080fd5b61246988828901612198565b9150509295509295909350565b60006020828403121561248857600080fd5b60006124968482850161216e565b91505092915050565b6000602082840312156124b157600080fd5b60006124bf84828501612183565b91505092915050565b6000602082840312156124da57600080fd5b600082013567ffffffffffffffff8111156124f457600080fd5b612500848285016121b4565b91505092915050565b6000806000806000806080878903121561252257600080fd5b600087013567ffffffffffffffff81111561253c57600080fd5b61254889828a016121b4565b965050602087013567ffffffffffffffff81111561256557600080fd5b61257189828a0161210f565b9550955050604087013567ffffffffffffffff81111561259057600080fd5b61259c89828a0161210f565b935093505060606125af89828a016121cf565b9150509295509295509295565b6000602082840312156125ce57600080fd5b60006125dc848285016121cf565b91505092915050565b6000602082840312156125f757600080fd5b6000612605848285016121e4565b91505092915050565b6000806040838503121561262157600080fd5b600061262f858286016121cf565b925050602061264085828601612038565b9150509250929050565b60006126568383612680565b60208301905092915050565b61266b816135c7565b82525050565b61267a81613532565b82525050565b61268981613520565b82525050565b61269881613520565b82525050565b60006126a9826133d5565b6126b38185613403565b93506126be836133c5565b8060005b838110156126ef5781516126d6888261264a565b97506126e1836133f6565b9250506001810190506126c2565b5085935050505092915050565b61270581613544565b82525050565b61271481613550565b82525050565b60006127268385613414565b9350612733838584613669565b61273c836136ab565b840190509392505050565b6000612752826133e0565b61275c8185613425565b935061276c818560208601613678565b612775816136ab565b840191505092915050565b600061278b826133e0565b6127958185613436565b93506127a5818560208601613678565b80840191505092915050565b6127ba816135d9565b82525050565b6127c9816135fd565b82525050565b6127d881613621565b82525050565b60006127e9826133eb565b6127f38185613441565b9350612803818560208601613678565b61280c816136ab565b840191505092915050565b6000612824601f83613441565b91507f696e76616c696420666f7277617264657220666f7220726563697069656e74006000830152602082019050919050565b6000612864602683613441565b91507f4f776e61626c653a206e6577206f776e657220697320746865207a65726f206160008301527f64647265737300000000000000000000000000000000000000000000000000006020830152604082019050919050565b60006128ca601e83613441565b91507f546f6b656e5061796d61737465722f42616c616e636520746f206c6f772e00006000830152602082019050919050565b600061290a601983613441565b91507f72656c6179206875622061646472657373206e6f7420736574000000000000006000830152602082019050919050565b600061294a601b83613441565b91507f536166654d6174683a206164646974696f6e206f766572666c6f7700000000006000830152602082019050919050565b600061298a601883613441565b91507f466f72776172646572206973206e6f74207472757374656400000000000000006000830152602082019050919050565b60006129ca602c83613441565b91507f697354727573746564466f727761726465722072657475726e656420696e766160008301527f6c696420726573706f6e736500000000000000000000000000000000000000006020830152604082019050919050565b6000612a30601b83613441565b91507f697354727573746564466f7277617264657220726576657274656400000000006000830152602082019050919050565b6000612a70602783613441565b91507f46756e6374696f6e2063616e206f6e6c792062652063616c6c6564206279205260008301527f656c6179487562000000000000000000000000000000000000000000000000006020830152604082019050919050565b6000612ad6602083613441565b91507f4f776e61626c653a2063616c6c6572206973206e6f7420746865206f776e65726000830152602082019050919050565b6000612b16601583613441565b91507f746f6b656e2062616c616e636520746f6f206c6f7700000000000000000000006000830152602082019050919050565b600060c08301612b5c6000840184613452565b612b696000860182612680565b50612b776020840184613452565b612b846020860182612680565b50612b926040840184613509565b612b9f6040860182612e7e565b50612bad6060840184613509565b612bba6060860182612e7e565b50612bc86080840184613509565b612bd56080860182612e7e565b50612be360a0840184613469565b85830360a0870152612bf683828461271a565b925050508091505092915050565b606082016000820151612c1a6000850182612e7e565b506020820151612c2d6020850182612e7e565b506040820151612c406040850182612e7e565b50505050565b60006101008301612c5a6000840184613509565b612c676000860182612e7e565b50612c756020840184613509565b612c826020860182612e7e565b50612c906040840184613509565b612c9d6040860182612e7e565b50612cab6060840184613452565b612cb86060860182612680565b50612cc66080840184613452565b612cd36080860182612680565b50612ce160a0840184613469565b85830360a0870152612cf483828461271a565b92505050612d0560c0840184613509565b612d1260c0860182612e7e565b50612d2060e0840184613452565b612d2d60e0860182612680565b508091505092915050565b60006101008301612d4c6000840184613509565b612d596000860182612e7e565b50612d676020840184613509565b612d746020860182612e7e565b50612d826040840184613509565b612d8f6040860182612e7e565b50612d9d6060840184613452565b612daa6060860182612680565b50612db86080840184613452565b612dc56080860182612680565b50612dd360a0840184613469565b85830360a0870152612de683828461271a565b92505050612df760c0840184613509565b612e0460c0860182612e7e565b50612e1260e0840184613452565b612e1f60e0860182612680565b508091505092915050565b600060408301612e3d60008401846134c0565b8482036000860152612e4f8282612b49565b915050612e5f60208401846134e4565b8482036020860152612e718282612c46565b9150508091505092915050565b612e87816135b0565b82525050565b612e96816135b0565b82525050565b612ea5816135ba565b82525050565b6000612eb78284612780565b915081905092915050565b6000602082019050612ed7600083018461268f565b92915050565b6000602082019050612ef26000830184612662565b92915050565b6000606082019050612f0d600083018661268f565b612f1a6020830185612662565b612f276040830184612e8d565b949350505050565b600060e082019050612f44600083018a61268f565b612f516020830189612662565b612f5e6040830188612e8d565b612f6b6060830187612e8d565b612f786080830186612e9c565b612f8560a083018561270b565b612f9260c083018461270b565b98975050505050505050565b6000604082019050612fb3600083018561268f565b612fc06020830184612e8d565b9392505050565b6000606082019050612fdc600083018661268f565b612fe96020830185612e8d565b612ff660408301846127b1565b949350505050565b600060408201905081810360008301526130188185612747565b905061302760208301846126fc565b9392505050565b600060208201905061304360008301846127b1565b92915050565b600060208201905061305e60008301846127c0565b92915050565b600060208201905061307960008301846127cf565b92915050565b6000602082019050818103600083015261309981846127de565b905092915050565b600060208201905081810360008301526130ba81612817565b9050919050565b600060208201905081810360008301526130da81612857565b9050919050565b600060208201905081810360008301526130fa816128bd565b9050919050565b6000602082019050818103600083015261311a816128fd565b9050919050565b6000602082019050818103600083015261313a8161293d565b9050919050565b6000602082019050818103600083015261315a8161297d565b9050919050565b6000602082019050818103600083015261317a816129bd565b9050919050565b6000602082019050818103600083015261319a81612a23565b9050919050565b600060208201905081810360008301526131ba81612a63565b9050919050565b600060208201905081810360008301526131da81612ac9565b9050919050565b600060208201905081810360008301526131fa81612b09565b9050919050565b60006060820190506132166000830184612c04565b92915050565b600060208201905081810360008301526132368184612e2a565b905092915050565b60006020820190506132536000830184612e8d565b92915050565b600060408201905061326e6000830185612e8d565b61327b6020830184612671565b9392505050565b60006040820190506132976000830185612e8d565b81810360208301526132a9818461269e565b90509392505050565b60006040820190506132c76000830185612e8d565b81810360208301526132d98184612d38565b90509392505050565b60006080820190506132f76000830187612e8d565b6133046020830186612e8d565b6133116040830185612e8d565b61331e6060830184612e8d565b95945050505050565b60008235600160c00383360303811261333f57600080fd5b80830191505092915050565b6000823560016101000383360303811261336457600080fd5b80830191505092915050565b6000604051905081810181811067ffffffffffffffff8211171561339357600080fd5b8060405250919050565b600067ffffffffffffffff8211156133b457600080fd5b602082029050602081019050919050565b6000819050602082019050919050565b600081519050919050565b600081519050919050565b600081519050919050565b6000602082019050919050565b600082825260208201905092915050565b600082825260208201905092915050565b600082825260208201905092915050565b600081905092915050565b600082825260208201905092915050565b6000613461602084018461200e565b905092915050565b6000808335600160200384360303811261348257600080fd5b83810192508235915060208301925067ffffffffffffffff8211156134a657600080fd5b6001820236038413156134b857600080fd5b509250929050565b60008235600160c0038336030381126134d857600080fd5b82810191505092915050565b600082356001610100038336030381126134fd57600080fd5b82810191505092915050565b600061351860208401846121cf565b905092915050565b600061352b82613590565b9050919050565b600061353d82613590565b9050919050565b60008115159050919050565b6000819050919050565b600061356582613520565b9050919050565b600061357782613520565b9050919050565b600061358982613520565b9050919050565b600073ffffffffffffffffffffffffffffffffffffffff82169050919050565b6000819050919050565b600060ff82169050919050565b60006135d282613645565b9050919050565b60006135e4826135eb565b9050919050565b60006135f682613590565b9050919050565b60006136088261360f565b9050919050565b600061361a82613590565b9050919050565b600061362c82613633565b9050919050565b600061363e82613590565b9050919050565b600061365082613657565b9050919050565b600061366282613590565b9050919050565b82818337600083830152505050565b60005b8381101561369657808201518184015260208101905061367b565b838111156136a5576000848401525b50505050565b6000601f19601f8301169050919050565b6136c581613520565b81146136d057600080fd5b50565b6136dc81613532565b81146136e757600080fd5b50565b6136f381613544565b81146136fe57600080fd5b50565b61370a81613550565b811461371557600080fd5b50565b6137218161355a565b811461372c57600080fd5b50565b6137388161356c565b811461374357600080fd5b50565b61374f8161357e565b811461375a57600080fd5b50565b613766816135b0565b811461377157600080fd5b50565b61377d816135ba565b811461378857600080fd5b5056fea26469706673582212200ee37c3a736988bcedc8abd057b33d2d5f18e0d93b98d9d26f4b888dd6cccaa364736f6c634300060a0033",
  "immutableReferences": {},
  "source": "// SPDX-License-Identifier:MIT\npragma solidity ^0.6.10;\npragma experimental ABIEncoderV2;\n\nimport \"@openzeppelin/contracts/access/Ownable.sol\";\nimport \"@openzeppelin/contracts/math/SafeMath.sol\";\n\nimport \"@opengsn/gsn/contracts/forwarder/IForwarder.sol\";\nimport \"@opengsn/gsn/contracts/BasePaymaster.sol\";\n\nimport \"./interfaces/IERC20.sol\";\nimport \"./interfaces/IUniswap.sol\";\n\n/**\n * A Token-based paymaster.\n * - each request is paid for by the caller.\n * - acceptRelayedCall - verify the caller can pay for the request in tokens.\n * - preRelayedCall - pre-pay the maximum possible price for the tx\n * - postRelayedCall - refund the caller for the unused gas\n */\ncontract TokenPaymaster is BasePaymaster {\n    using SafeMath for uint256;\n\n    function versionPaymaster() external override virtual view returns (string memory){\n        return \"2.0.1\";\n    }\n\n    IUniswap public _uniswap;\n    IERC20 public _token;\n\n    uint public gasUsedByPost;\n\n    constructor(address _uniswapAddress, address _tokenAddress) public {\n        _uniswap = IUniswap(_uniswapAddress);\n        _token = IERC20(_tokenAddress);\n    }\n\n    function setPostGasUsage(uint _gasUsedByPost) external onlyOwner {\n        gasUsedByPost = _gasUsedByPost;\n    }\n\n    function getPayer(GsnTypes.RelayRequest calldata relayRequest) public virtual view returns (address) {\n        (this);\n        return relayRequest.request.from;\n    }\n\n    function _calculatePreCharge(\n        IERC20 token,\n        GsnTypes.RelayRequest calldata relayRequest,\n        uint256 maxPossibleGas)\n    internal\n    view\n    returns (address payer, uint256 tokenPreCharge) {\n        payer = this.getPayer(relayRequest);\n        uint ethMaxCharge = relayHub.calculateCharge(maxPossibleGas, relayRequest.relayData);\n        ethMaxCharge += relayRequest.request.value;\n        tokenPreCharge = this.getTokenToEthOutputPrice(ethMaxCharge);\n        require(tokenPreCharge <= token.balanceOf(payer), \"token balance too low\");\n    }\n\n    event PreCall(address payer, uint256 tokenPreCharge);\n\n    function preRelayedCall(\n        GsnTypes.RelayRequest calldata relayRequest,\n        bytes calldata signature,\n        bytes calldata approvalData,\n        uint256 maxPossibleGas\n    )\n    external\n    override\n    virtual\n    relayHubOnly\n    returns (bytes memory context, bool revertOnRecipientRevert) {\n        (relayRequest, signature, approvalData, maxPossibleGas);\n\n        (address payer, uint256 tokenPrecharge) = _calculatePreCharge(_token, relayRequest, maxPossibleGas);\n        (address owner, uint256 value, uint256 deadline, uint8 v, bytes32 r, bytes32 s) = abi.decode(approvalData, (address, uint256, uint256, uint8, bytes32, bytes32));\n\n        _token.permit(owner, address(this), value, deadline, v, r, s);\n\n        return (abi.encode(payer, tokenPrecharge, _token), false);\n    }\n\n    function postRelayedCall(\n        bytes calldata context,\n        bool success,\n        uint256 gasUseWithoutPost,\n        GsnTypes.RelayData calldata relayData\n    )\n    external\n    override\n    virtual\n    relayHubOnly {\n        (context, success, gasUseWithoutPost, relayData);\n        (address payer,, IERC20 token) = abi.decode(context, (address, uint256, IERC20));\n        uint256 valueRequested = 0;\n        uint256 ethActualCharge = relayHub.calculateCharge(gasUseWithoutPost.add(gasUsedByPost), relayData);\n        uint256 tokenActualCharge = this.getTokenToEthOutputPrice(valueRequested.add(ethActualCharge));\n        _token.transferFrom(payer, address(this), tokenActualCharge);\n\n        emit TokensCharged(gasUseWithoutPost, gasUsedByPost, ethActualCharge, tokenActualCharge);\n    }\n\n    function getTokenBalance() external view returns (uint256) {\n        return _token.balanceOf(address(this));\n    }\n\n    function withdrawToken(address account, uint256 amount) external onlyOwner() {\n        uint256 tokenBalance = _token.balanceOf(address(this));\n        require(amount <= tokenBalance, 'TokenPaymaster/Balance to low.');\n        _token.transfer(account, amount);\n    }\n\n    function getTokenToEthOutputPrice(uint ethValue) public view returns (uint256) {\n        address[] memory path = new address[](2);\n        path[0] = address(_token);\n        path[1] = _uniswap.WETH();\n        uint[] memory amountOuts = _uniswap.getAmountsIn(ethValue, path);\n        return amountOuts[0]; \n    }\n\n    event TokensCharged(uint gasUseWithoutPost, uint gasJustPost, uint ethActualCharge, uint tokenActualCharge);\n}",
  "sourcePath": "/Users/johnpaulcas/Desktop/Workstation/XLoad/xload-contracts/contracts/TokenPaymaster.sol",
  "compiler": {
    "name": "solc",
    "version": "0.6.10+commit.00c0fcaf.Emscripten.clang"
  },
  "schemaVersion": "3.3.1",
  "updatedAt": "2020-12-11T08:18:03.312Z",
  "networkType": "ethereum",
  "devdoc": {
    "methods": {
      "owner()": {
        "details": "Returns the address of the current owner."
      },
      "renounceOwnership()": {
        "details": "Leaves the contract without owner. It will not be possible to call `onlyOwner` functions anymore. Can only be called by the current owner. NOTE: Renouncing ownership will leave the contract without an owner, thereby removing any functionality that is only available to the owner."
      },
      "transferOwnership(address)": {
        "details": "Transfers ownership of the contract to a new account (`newOwner`). Can only be called by the current owner."
      }
    }
  },
  "userdoc": {
    "methods": {
      "getRelayHubDeposit()": {
        "notice": "check current deposit on relay hub."
      },
      "withdrawRelayHubDepositTo(uint256,address)": {
        "notice": "withdraw deposit from relayHub"
      }
    },
    "notice": "A Token-based paymaster. - each request is paid for by the caller. - acceptRelayedCall - verify the caller can pay for the request in tokens. - preRelayedCall - pre-pay the maximum possible price for the tx - postRelayedCall - refund the caller for the unused gas"
  }
}