{
  "contractName": "Token",
  "abi": [
    {
      "inputs": [
        {
          "internalType": "uint256",
          "name": "supply",
          "type": "uint256"
        },
        {
          "internalType": "address",
          "name": "forwarder",
          "type": "address"
        }
      ],
      "stateMutability": "nonpayable",
      "type": "constructor"
    },
    {
      "anonymous": false,
      "inputs": [
        {
          "indexed": true,
          "internalType": "address",
          "name": "owner",
          "type": "address"
        },
        {
          "indexed": true,
          "internalType": "address",
          "name": "spender",
          "type": "address"
        },
        {
          "indexed": false,
          "internalType": "uint256",
          "name": "value",
          "type": "uint256"
        }
      ],
      "name": "Approval",
      "type": "event"
    },
    {
      "anonymous": false,
      "inputs": [
        {
          "indexed": true,
          "internalType": "bytes32",
          "name": "role",
          "type": "bytes32"
        },
        {
          "indexed": true,
          "internalType": "bytes32",
          "name": "previousAdminRole",
          "type": "bytes32"
        },
        {
          "indexed": true,
          "internalType": "bytes32",
          "name": "newAdminRole",
          "type": "bytes32"
        }
      ],
      "name": "RoleAdminChanged",
      "type": "event"
    },
    {
      "anonymous": false,
      "inputs": [
        {
          "indexed": true,
          "internalType": "bytes32",
          "name": "role",
          "type": "bytes32"
        },
        {
          "indexed": true,
          "internalType": "address",
          "name": "account",
          "type": "address"
        },
        {
          "indexed": true,
          "internalType": "address",
          "name": "sender",
          "type": "address"
        }
      ],
      "name": "RoleGranted",
      "type": "event"
    },
    {
      "anonymous": false,
      "inputs": [
        {
          "indexed": true,
          "internalType": "bytes32",
          "name": "role",
          "type": "bytes32"
        },
        {
          "indexed": true,
          "internalType": "address",
          "name": "account",
          "type": "address"
        },
        {
          "indexed": true,
          "internalType": "address",
          "name": "sender",
          "type": "address"
        }
      ],
      "name": "RoleRevoked",
      "type": "event"
    },
    {
      "anonymous": false,
      "inputs": [
        {
          "indexed": true,
          "internalType": "address",
          "name": "from",
          "type": "address"
        },
        {
          "indexed": true,
          "internalType": "address",
          "name": "to",
          "type": "address"
        },
        {
          "indexed": false,
          "internalType": "uint256",
          "name": "value",
          "type": "uint256"
        }
      ],
      "name": "Transfer",
      "type": "event"
    },
    {
      "inputs": [],
      "name": "BURNER_ROLE",
      "outputs": [
        {
          "internalType": "bytes32",
          "name": "",
          "type": "bytes32"
        }
      ],
      "stateMutability": "view",
      "type": "function",
      "constant": true
    },
    {
      "inputs": [],
      "name": "DEFAULT_ADMIN_ROLE",
      "outputs": [
        {
          "internalType": "bytes32",
          "name": "",
          "type": "bytes32"
        }
      ],
      "stateMutability": "view",
      "type": "function",
      "constant": true
    },
    {
      "inputs": [],
      "name": "DOMAIN_SEPARATOR",
      "outputs": [
        {
          "internalType": "bytes32",
          "name": "",
          "type": "bytes32"
        }
      ],
      "stateMutability": "view",
      "type": "function",
      "constant": true
    },
    {
      "inputs": [],
      "name": "EIP712_REVISION",
      "outputs": [
        {
          "internalType": "bytes",
          "name": "",
          "type": "bytes"
        }
      ],
      "stateMutability": "view",
      "type": "function",
      "constant": true
    },
    {
      "inputs": [],
      "name": "MINTER_ROLE",
      "outputs": [
        {
          "internalType": "bytes32",
          "name": "",
          "type": "bytes32"
        }
      ],
      "stateMutability": "view",
      "type": "function",
      "constant": true
    },
    {
      "inputs": [],
      "name": "PERMIT_TYPEHASH",
      "outputs": [
        {
          "internalType": "bytes32",
          "name": "",
          "type": "bytes32"
        }
      ],
      "stateMutability": "view",
      "type": "function",
      "constant": true
    },
    {
      "inputs": [
        {
          "internalType": "address",
          "name": "",
          "type": "address"
        }
      ],
      "name": "_nonces",
      "outputs": [
        {
          "internalType": "uint256",
          "name": "",
          "type": "uint256"
        }
      ],
      "stateMutability": "view",
      "type": "function",
      "constant": true
    },
    {
      "inputs": [
        {
          "internalType": "address",
          "name": "owner",
          "type": "address"
        },
        {
          "internalType": "address",
          "name": "spender",
          "type": "address"
        }
      ],
      "name": "allowance",
      "outputs": [
        {
          "internalType": "uint256",
          "name": "",
          "type": "uint256"
        }
      ],
      "stateMutability": "view",
      "type": "function",
      "constant": true
    },
    {
      "inputs": [
        {
          "internalType": "address",
          "name": "spender",
          "type": "address"
        },
        {
          "internalType": "uint256",
          "name": "amount",
          "type": "uint256"
        }
      ],
      "name": "approve",
      "outputs": [
        {
          "internalType": "bool",
          "name": "",
          "type": "bool"
        }
      ],
      "stateMutability": "nonpayable",
      "type": "function"
    },
    {
      "inputs": [
        {
          "internalType": "address",
          "name": "account",
          "type": "address"
        }
      ],
      "name": "balanceOf",
      "outputs": [
        {
          "internalType": "uint256",
          "name": "",
          "type": "uint256"
        }
      ],
      "stateMutability": "view",
      "type": "function",
      "constant": true
    },
    {
      "inputs": [],
      "name": "decimals",
      "outputs": [
        {
          "internalType": "uint8",
          "name": "",
          "type": "uint8"
        }
      ],
      "stateMutability": "view",
      "type": "function",
      "constant": true
    },
    {
      "inputs": [
        {
          "internalType": "address",
          "name": "spender",
          "type": "address"
        },
        {
          "internalType": "uint256",
          "name": "subtractedValue",
          "type": "uint256"
        }
      ],
      "name": "decreaseAllowance",
      "outputs": [
        {
          "internalType": "bool",
          "name": "",
          "type": "bool"
        }
      ],
      "stateMutability": "nonpayable",
      "type": "function"
    },
    {
      "inputs": [
        {
          "internalType": "bytes32",
          "name": "role",
          "type": "bytes32"
        }
      ],
      "name": "getRoleAdmin",
      "outputs": [
        {
          "internalType": "bytes32",
          "name": "",
          "type": "bytes32"
        }
      ],
      "stateMutability": "view",
      "type": "function",
      "constant": true
    },
    {
      "inputs": [
        {
          "internalType": "bytes32",
          "name": "role",
          "type": "bytes32"
        },
        {
          "internalType": "uint256",
          "name": "index",
          "type": "uint256"
        }
      ],
      "name": "getRoleMember",
      "outputs": [
        {
          "internalType": "address",
          "name": "",
          "type": "address"
        }
      ],
      "stateMutability": "view",
      "type": "function",
      "constant": true
    },
    {
      "inputs": [
        {
          "internalType": "bytes32",
          "name": "role",
          "type": "bytes32"
        }
      ],
      "name": "getRoleMemberCount",
      "outputs": [
        {
          "internalType": "uint256",
          "name": "",
          "type": "uint256"
        }
      ],
      "stateMutability": "view",
      "type": "function",
      "constant": true
    },
    {
      "inputs": [
        {
          "internalType": "bytes32",
          "name": "role",
          "type": "bytes32"
        },
        {
          "internalType": "address",
          "name": "account",
          "type": "address"
        }
      ],
      "name": "grantRole",
      "outputs": [],
      "stateMutability": "nonpayable",
      "type": "function"
    },
    {
      "inputs": [
        {
          "internalType": "bytes32",
          "name": "role",
          "type": "bytes32"
        },
        {
          "internalType": "address",
          "name": "account",
          "type": "address"
        }
      ],
      "name": "hasRole",
      "outputs": [
        {
          "internalType": "bool",
          "name": "",
          "type": "bool"
        }
      ],
      "stateMutability": "view",
      "type": "function",
      "constant": true
    },
    {
      "inputs": [
        {
          "internalType": "address",
          "name": "spender",
          "type": "address"
        },
        {
          "internalType": "uint256",
          "name": "addedValue",
          "type": "uint256"
        }
      ],
      "name": "increaseAllowance",
      "outputs": [
        {
          "internalType": "bool",
          "name": "",
          "type": "bool"
        }
      ],
      "stateMutability": "nonpayable",
      "type": "function"
    },
    {
      "inputs": [
        {
          "internalType": "address",
          "name": "forwarder",
          "type": "address"
        }
      ],
      "name": "isTrustedForwarder",
      "outputs": [
        {
          "internalType": "bool",
          "name": "",
          "type": "bool"
        }
      ],
      "stateMutability": "view",
      "type": "function",
      "constant": true
    },
    {
      "inputs": [],
      "name": "name",
      "outputs": [
        {
          "internalType": "string",
          "name": "",
          "type": "string"
        }
      ],
      "stateMutability": "view",
      "type": "function",
      "constant": true
    },
    {
      "inputs": [
        {
          "internalType": "bytes32",
          "name": "role",
          "type": "bytes32"
        },
        {
          "internalType": "address",
          "name": "account",
          "type": "address"
        }
      ],
      "name": "renounceRole",
      "outputs": [],
      "stateMutability": "nonpayable",
      "type": "function"
    },
    {
      "inputs": [
        {
          "internalType": "bytes32",
          "name": "role",
          "type": "bytes32"
        },
        {
          "internalType": "address",
          "name": "account",
          "type": "address"
        }
      ],
      "name": "revokeRole",
      "outputs": [],
      "stateMutability": "nonpayable",
      "type": "function"
    },
    {
      "inputs": [],
      "name": "symbol",
      "outputs": [
        {
          "internalType": "string",
          "name": "",
          "type": "string"
        }
      ],
      "stateMutability": "view",
      "type": "function",
      "constant": true
    },
    {
      "inputs": [],
      "name": "totalSupply",
      "outputs": [
        {
          "internalType": "uint256",
          "name": "",
          "type": "uint256"
        }
      ],
      "stateMutability": "view",
      "type": "function",
      "constant": true
    },
    {
      "inputs": [
        {
          "internalType": "address",
          "name": "recipient",
          "type": "address"
        },
        {
          "internalType": "uint256",
          "name": "amount",
          "type": "uint256"
        }
      ],
      "name": "transfer",
      "outputs": [
        {
          "internalType": "bool",
          "name": "",
          "type": "bool"
        }
      ],
      "stateMutability": "nonpayable",
      "type": "function"
    },
    {
      "inputs": [
        {
          "internalType": "address",
          "name": "sender",
          "type": "address"
        },
        {
          "internalType": "address",
          "name": "recipient",
          "type": "address"
        },
        {
          "internalType": "uint256",
          "name": "amount",
          "type": "uint256"
        }
      ],
      "name": "transferFrom",
      "outputs": [
        {
          "internalType": "bool",
          "name": "",
          "type": "bool"
        }
      ],
      "stateMutability": "nonpayable",
      "type": "function"
    },
    {
      "inputs": [],
      "name": "trustedForwarder",
      "outputs": [
        {
          "internalType": "address",
          "name": "",
          "type": "address"
        }
      ],
      "stateMutability": "view",
      "type": "function",
      "constant": true
    },
    {
      "inputs": [
        {
          "internalType": "address",
          "name": "account",
          "type": "address"
        },
        {
          "internalType": "uint256",
          "name": "amount",
          "type": "uint256"
        }
      ],
      "name": "mintTo",
      "outputs": [
        {
          "internalType": "bool",
          "name": "",
          "type": "bool"
        }
      ],
      "stateMutability": "nonpayable",
      "type": "function"
    },
    {
      "inputs": [
        {
          "internalType": "uint256",
          "name": "amount",
          "type": "uint256"
        }
      ],
      "name": "burn",
      "outputs": [],
      "stateMutability": "nonpayable",
      "type": "function"
    },
    {
      "inputs": [],
      "name": "versionRecipient",
      "outputs": [
        {
          "internalType": "string",
          "name": "",
          "type": "string"
        }
      ],
      "stateMutability": "view",
      "type": "function",
      "constant": true
    },
    {
      "inputs": [],
      "name": "getTrustedForwarder",
      "outputs": [
        {
          "internalType": "address",
          "name": "",
          "type": "address"
        }
      ],
      "stateMutability": "view",
      "type": "function",
      "constant": true
    },
    {
      "inputs": [
        {
          "internalType": "address",
          "name": "owner",
          "type": "address"
        },
        {
          "internalType": "address",
          "name": "spender",
          "type": "address"
        },
        {
          "internalType": "uint256",
          "name": "value",
          "type": "uint256"
        },
        {
          "internalType": "uint256",
          "name": "deadline",
          "type": "uint256"
        },
        {
          "internalType": "uint8",
          "name": "v",
          "type": "uint8"
        },
        {
          "internalType": "bytes32",
          "name": "r",
          "type": "bytes32"
        },
        {
          "internalType": "bytes32",
          "name": "s",
          "type": "bytes32"
        }
      ],
      "name": "permit",
      "outputs": [],
      "stateMutability": "nonpayable",
      "type": "function"
    },
    {
      "inputs": [],
      "name": "chainId",
      "outputs": [
        {
          "internalType": "uint256",
          "name": "_chainId",
          "type": "uint256"
        }
      ],
      "stateMutability": "pure",
      "type": "function",
      "constant": true
    }
  ],
  "bytecode": "0x60806040523480156200001157600080fd5b506040516200352938038062003529833981810160405260408110156200003757600080fd5b8101908080519060200190929190805190602001909291905050506040518060400160405280600581526020017f584c6f61640000000000000000000000000000000000000000000000000000008152506040518060400160405280600381526020017f584c4400000000000000000000000000000000000000000000000000000000008152508160039080519060200190620000d6929190620008a2565b508060049080519060200190620000ef929190620008a2565b506012600560006101000a81548160ff021916908360ff16021790555050506200012f620001226200033b60201b60201c565b836200035760201b60201c565b620001536000801b620001476200033b60201b60201c565b6200053560201b60201c565b620001a960405180807f4d494e5445525f524f4c45000000000000000000000000000000000000000000815250600b01905060405180910390206200019d6200033b60201b60201c565b6200053560201b60201c565b620001ff60405180807f4255524e45525f524f4c45000000000000000000000000000000000000000000815250600b0190506040518091039020620001f36200033b60201b60201c565b6200053560201b60201c565b6040518080620034d76052913960520190506040518091039020620002296200054b60201b60201c565b805190602001206040518060400160405280600181526020017f3100000000000000000000000000000000000000000000000000000000000000815250805190602001206200027d620005f160201b60201c565b30604051602001808681526020018581526020018481526020018381526020018273ffffffffffffffffffffffffffffffffffffffff1673ffffffffffffffffffffffffffffffffffffffff168152602001955050505050506040516020818303038152906040528051906020012060088190555080600760006101000a81548173ffffffffffffffffffffffffffffffffffffffff021916908373ffffffffffffffffffffffffffffffffffffffff160217905550505062000951565b600062000352620005f960201b62001a951760201c565b905090565b600073ffffffffffffffffffffffffffffffffffffffff168273ffffffffffffffffffffffffffffffffffffffff161415620003fb576040517f08c379a000000000000000000000000000000000000000000000000000000000815260040180806020018281038252601f8152602001807f45524332303a206d696e7420746f20746865207a65726f20616464726573730081525060200191505060405180910390fd5b6200040f600083836200064160201b60201c565b6200042b816002546200064660201b62001ad11790919060201c565b60028190555062000489816000808573ffffffffffffffffffffffffffffffffffffffff1673ffffffffffffffffffffffffffffffffffffffff168152602001908152602001600020546200064660201b62001ad11790919060201c565b6000808473ffffffffffffffffffffffffffffffffffffffff1673ffffffffffffffffffffffffffffffffffffffff168152602001908152602001600020819055508173ffffffffffffffffffffffffffffffffffffffff16600073ffffffffffffffffffffffffffffffffffffffff167fddf252ad1be2c89b69c2b068fc378daa952ba7f163c4a11628f55a4df523b3ef836040518082815260200191505060405180910390a35050565b620005478282620006cf60201b60201c565b5050565b606060038054600181600116156101000203166002900480601f016020809104026020016040519081016040528092919081815260200182805460018160011615610100020316600290048015620005e75780601f10620005bb57610100808354040283529160200191620005e7565b820191906000526020600020905b815481529060010190602001808311620005c957829003601f168201915b5050505050905090565b600046905090565b600060186000369050101580156200061e57506200061d336200077360201b60201c565b5b156200063457601436033560601c90506200063d565b3390506200063e565b5b90565b505050565b600080828401905083811015620006c5576040517f08c379a000000000000000000000000000000000000000000000000000000000815260040180806020018281038252601b8152602001807f536166654d6174683a206164646974696f6e206f766572666c6f77000000000081525060200191505060405180910390fd5b8091505092915050565b620006fe8160066000858152602001908152602001600020600001620007cd60201b62001b591790919060201c565b156200076f57620007146200033b60201b60201c565b73ffffffffffffffffffffffffffffffffffffffff168173ffffffffffffffffffffffffffffffffffffffff16837f2f8788117e7eff1d82e926ec794901d17c78024a50270940304540a733656f0d60405160405180910390a45b5050565b6000600760009054906101000a900473ffffffffffffffffffffffffffffffffffffffff1673ffffffffffffffffffffffffffffffffffffffff168273ffffffffffffffffffffffffffffffffffffffff16149050919050565b6000620007fd836000018373ffffffffffffffffffffffffffffffffffffffff1660001b6200080560201b60201c565b905092915050565b60006200081983836200087f60201b60201c565b6200087457826000018290806001815401808255809150506001900390600052602060002001600090919091909150558260000180549050836001016000848152602001908152602001600020819055506001905062000879565b600090505b92915050565b600080836001016000848152602001908152602001600020541415905092915050565b828054600181600116156101000203166002900490600052602060002090601f016020900481019282601f10620008e557805160ff191683800117855562000916565b8280016001018555821562000916579182015b8281111562000915578251825591602001919060010190620008f8565b5b50905062000925919062000929565b5090565b6200094e91905b808211156200094a57600081600090555060010162000930565b5090565b90565b612b7680620009616000396000f3fe608060405234801561001057600080fd5b50600436106101fb5760003560e01c806370a082311161011a578063a457c2d7116100ad578063ce1b815f1161007c578063ce1b815f14610aea578063d505accf14610b34578063d539139314610bcd578063d547741f14610beb578063dd62ed3e14610c39576101fb565b8063a457c2d714610984578063a9059cbb146109ea578063b9844d8d14610a50578063ca15c87314610aa8576101fb565b806391d14854116100e957806391d148541461085f57806395d89b41146108c55780639a8a059214610948578063a217fddf14610966576101fb565b806370a08231146106c2578063781603761461071a5780637da0a8771461079d5780639010d07c146107e7576101fb565b8063313ce5671161019257806342966c681161016157806342966c681461054f578063449a52f81461057d578063486ff0cd146105e3578063572b6c0514610666576101fb565b8063313ce567146104595780633644e5151461047d57806336568abe1461049b57806339509351146104e9576101fb565b8063248a9ca3116101ce578063248a9ca31461038d578063282c51f3146103cf5780632f2ff15d146103ed57806330adf81f1461043b576101fb565b806306fdde0314610200578063095ea7b31461028357806318160ddd146102e957806323b872dd14610307575b600080fd5b610208610cb1565b6040518080602001828103825283818151815260200191508051906020019080838360005b8381101561024857808201518184015260208101905061022d565b50505050905090810190601f1680156102755780820380516001836020036101000a031916815260200191505b509250505060405180910390f35b6102cf6004803603604081101561029957600080fd5b81019080803573ffffffffffffffffffffffffffffffffffffffff16906020019092919080359060200190929190505050610d53565b604051808215151515815260200191505060405180910390f35b6102f1610d71565b6040518082815260200191505060405180910390f35b6103736004803603606081101561031d57600080fd5b81019080803573ffffffffffffffffffffffffffffffffffffffff169060200190929190803573ffffffffffffffffffffffffffffffffffffffff16906020019092919080359060200190929190505050610d7b565b604051808215151515815260200191505060405180910390f35b6103b9600480360360208110156103a357600080fd5b8101908080359060200190929190505050610e54565b6040518082815260200191505060405180910390f35b6103d7610e74565b6040518082815260200191505060405180910390f35b6104396004803603604081101561040357600080fd5b8101908080359060200190929190803573ffffffffffffffffffffffffffffffffffffffff169060200190929190505050610ead565b005b610443610f37565b6040518082815260200191505060405180910390f35b610461610f53565b604051808260ff1660ff16815260200191505060405180910390f35b610485610f6a565b6040518082815260200191505060405180910390f35b6104e7600480360360408110156104b157600080fd5b8101908080359060200190929190803573ffffffffffffffffffffffffffffffffffffffff169060200190929190505050610f70565b005b610535600480360360408110156104ff57600080fd5b81019080803573ffffffffffffffffffffffffffffffffffffffff16906020019092919080359060200190929190505050611009565b604051808215151515815260200191505060405180910390f35b61057b6004803603602081101561056557600080fd5b81019080803590602001909291905050506110bc565b005b6105c96004803603604081101561059357600080fd5b81019080803573ffffffffffffffffffffffffffffffffffffffff1690602001909291908035906020019092919050505061116b565b604051808215151515815260200191505060405180910390f35b6105eb61121c565b6040518080602001828103825283818151815260200191508051906020019080838360005b8381101561062b578082015181840152602081019050610610565b50505050905090810190601f1680156106585780820380516001836020036101000a031916815260200191505b509250505060405180910390f35b6106a86004803603602081101561067c57600080fd5b81019080803573ffffffffffffffffffffffffffffffffffffffff169060200190929190505050611259565b604051808215151515815260200191505060405180910390f35b610704600480360360208110156106d857600080fd5b81019080803573ffffffffffffffffffffffffffffffffffffffff1690602001909291905050506112b3565b6040518082815260200191505060405180910390f35b6107226112fb565b6040518080602001828103825283818151815260200191508051906020019080838360005b83811015610762578082015181840152602081019050610747565b50505050905090810190601f16801561078f5780820380516001836020036101000a031916815260200191505b509250505060405180910390f35b6107a5611334565b604051808273ffffffffffffffffffffffffffffffffffffffff1673ffffffffffffffffffffffffffffffffffffffff16815260200191505060405180910390f35b61081d600480360360408110156107fd57600080fd5b81019080803590602001909291908035906020019092919050505061135a565b604051808273ffffffffffffffffffffffffffffffffffffffff1673ffffffffffffffffffffffffffffffffffffffff16815260200191505060405180910390f35b6108ab6004803603604081101561087557600080fd5b8101908080359060200190929190803573ffffffffffffffffffffffffffffffffffffffff16906020019092919050505061138c565b604051808215151515815260200191505060405180910390f35b6108cd6113be565b6040518080602001828103825283818151815260200191508051906020019080838360005b8381101561090d5780820151818401526020810190506108f2565b50505050905090810190601f16801561093a5780820380516001836020036101000a031916815260200191505b509250505060405180910390f35b610950611460565b6040518082815260200191505060405180910390f35b61096e611468565b6040518082815260200191505060405180910390f35b6109d06004803603604081101561099a57600080fd5b81019080803573ffffffffffffffffffffffffffffffffffffffff1690602001909291908035906020019092919050505061146f565b604051808215151515815260200191505060405180910390f35b610a3660048036036040811015610a0057600080fd5b81019080803573ffffffffffffffffffffffffffffffffffffffff1690602001909291908035906020019092919050505061153c565b604051808215151515815260200191505060405180910390f35b610a9260048036036020811015610a6657600080fd5b81019080803573ffffffffffffffffffffffffffffffffffffffff16906020019092919050505061155a565b6040518082815260200191505060405180910390f35b610ad460048036036020811015610abe57600080fd5b8101908080359060200190929190505050611572565b6040518082815260200191505060405180910390f35b610af2611599565b604051808273ffffffffffffffffffffffffffffffffffffffff1673ffffffffffffffffffffffffffffffffffffffff16815260200191505060405180910390f35b610bcb600480360360e0811015610b4a57600080fd5b81019080803573ffffffffffffffffffffffffffffffffffffffff169060200190929190803573ffffffffffffffffffffffffffffffffffffffff1690602001909291908035906020019092919080359060200190929190803560ff16906020019092919080359060200190929190803590602001909291905050506115c3565b005b610bd561194b565b6040518082815260200191505060405180910390f35b610c3760048036036040811015610c0157600080fd5b8101908080359060200190929190803573ffffffffffffffffffffffffffffffffffffffff169060200190929190505050611984565b005b610c9b60048036036040811015610c4f57600080fd5b81019080803573ffffffffffffffffffffffffffffffffffffffff169060200190929190803573ffffffffffffffffffffffffffffffffffffffff169060200190929190505050611a0e565b6040518082815260200191505060405180910390f35b606060038054600181600116156101000203166002900480601f016020809104026020016040519081016040528092919081815260200182805460018160011615610100020316600290048015610d495780601f10610d1e57610100808354040283529160200191610d49565b820191906000526020600020905b815481529060010190602001808311610d2c57829003601f168201915b5050505050905090565b6000610d67610d60611b89565b8484611b98565b6001905092915050565b6000600254905090565b6000610d88848484611d8f565b610e4984610d94611b89565b610e4485604051806060016040528060288152602001612a3660289139600160008b73ffffffffffffffffffffffffffffffffffffffff1673ffffffffffffffffffffffffffffffffffffffff1681526020019081526020016000206000610dfa611b89565b73ffffffffffffffffffffffffffffffffffffffff1673ffffffffffffffffffffffffffffffffffffffff168152602001908152602001600020546120509092919063ffffffff16565b611b98565b600190509392505050565b600060066000838152602001908152602001600020600201549050919050565b60405180807f4255524e45525f524f4c45000000000000000000000000000000000000000000815250600b019050604051809103902081565b610ed46006600084815260200190815260200160002060020154610ecf611b89565b61138c565b610f29576040517f08c379a000000000000000000000000000000000000000000000000000000000815260040180806020018281038252602f8152602001806128f6602f913960400191505060405180910390fd5b610f338282612110565b5050565b60405180806129e4605291396052019050604051809103902081565b6000600560009054906101000a900460ff16905090565b60085481565b610f78611b89565b73ffffffffffffffffffffffffffffffffffffffff168173ffffffffffffffffffffffffffffffffffffffff1614610ffb576040517f08c379a000000000000000000000000000000000000000000000000000000000815260040180806020018281038252602f815260200180612b12602f913960400191505060405180910390fd5b61100582826121a4565b5050565b60006110b2611016611b89565b846110ad8560016000611027611b89565b73ffffffffffffffffffffffffffffffffffffffff1673ffffffffffffffffffffffffffffffffffffffff16815260200190815260200160002060008973ffffffffffffffffffffffffffffffffffffffff1673ffffffffffffffffffffffffffffffffffffffff16815260200190815260200160002054611ad190919063ffffffff16565b611b98565b6001905092915050565b61110260405180807f4255524e45525f524f4c45000000000000000000000000000000000000000000815250600b01905060405180910390206110fd611b89565b61138c565b611157576040517f08c379a00000000000000000000000000000000000000000000000000000000081526004018080602001828103825260258152602001806129696025913960400191505060405180910390fd5b611168611162611b89565b82612238565b50565b60006111b360405180807f4d494e5445525f524f4c45000000000000000000000000000000000000000000815250600b01905060405180910390206111ae611b89565b61138c565b611208576040517f08c379a0000000000000000000000000000000000000000000000000000000008152600401808060200182810382526025815260200180612ac86025913960400191505060405180910390fd5b61121283836123fc565b6001905092915050565b60606040518060400160405280600581526020017f322e302e30000000000000000000000000000000000000000000000000000000815250905090565b6000600760009054906101000a900473ffffffffffffffffffffffffffffffffffffffff1673ffffffffffffffffffffffffffffffffffffffff168273ffffffffffffffffffffffffffffffffffffffff16149050919050565b60008060008373ffffffffffffffffffffffffffffffffffffffff1673ffffffffffffffffffffffffffffffffffffffff168152602001908152602001600020549050919050565b6040518060400160405280600181526020017f310000000000000000000000000000000000000000000000000000000000000081525081565b600760009054906101000a900473ffffffffffffffffffffffffffffffffffffffff1681565b600061138482600660008681526020019081526020016000206000016125c390919063ffffffff16565b905092915050565b60006113b682600660008681526020019081526020016000206000016125dd90919063ffffffff16565b905092915050565b606060048054600181600116156101000203166002900480601f0160208091040260200160405190810160405280929190818152602001828054600181600116156101000203166002900480156114565780601f1061142b57610100808354040283529160200191611456565b820191906000526020600020905b81548152906001019060200180831161143957829003601f168201915b5050505050905090565b600046905090565b6000801b81565b600061153261147c611b89565b8461152d85604051806060016040528060258152602001612aed60259139600160006114a6611b89565b73ffffffffffffffffffffffffffffffffffffffff1673ffffffffffffffffffffffffffffffffffffffff16815260200190815260200160002060008a73ffffffffffffffffffffffffffffffffffffffff1673ffffffffffffffffffffffffffffffffffffffff168152602001908152602001600020546120509092919063ffffffff16565b611b98565b6001905092915050565b6000611550611549611b89565b8484611d8f565b6001905092915050565b60096020528060005260406000206000915090505481565b60006115926006600084815260200190815260200160002060000161260d565b9050919050565b6000600760009054906101000a900473ffffffffffffffffffffffffffffffffffffffff16905090565b42841015611639576040517f08c379a00000000000000000000000000000000000000000000000000000000081526004018080602001828103825260138152602001807f584c443a205045524d49545f455850495245440000000000000000000000000081525060200191505060405180910390fd5b6000600960008973ffffffffffffffffffffffffffffffffffffffff1673ffffffffffffffffffffffffffffffffffffffff168152602001908152602001600020549050600060085460405180806129e460529139605201905060405180910390208a8a8a868b604051602001808781526020018673ffffffffffffffffffffffffffffffffffffffff1673ffffffffffffffffffffffffffffffffffffffff1681526020018573ffffffffffffffffffffffffffffffffffffffff1673ffffffffffffffffffffffffffffffffffffffff16815260200184815260200183815260200182815260200196505050505050506040516020818303038152906040528051906020012060405160200180807f190100000000000000000000000000000000000000000000000000000000000081525060020183815260200182815260200192505050604051602081830303815290604052805190602001209050600060018287878760405160008152602001604052604051808581526020018460ff1660ff1681526020018381526020018281526020019450505050506020604051602081039080840390855afa1580156117f7573d6000803e3d6000fd5b505050602060405103519050600073ffffffffffffffffffffffffffffffffffffffff168173ffffffffffffffffffffffffffffffffffffffff161415801561186b57508973ffffffffffffffffffffffffffffffffffffffff168173ffffffffffffffffffffffffffffffffffffffff16145b6118dd576040517f08c379a00000000000000000000000000000000000000000000000000000000081526004018080602001828103825260168152602001807f584c443a20494e56414c49445f5349474e41545552450000000000000000000081525060200191505060405180910390fd5b6118f1600184611ad190919063ffffffff16565b600960008c73ffffffffffffffffffffffffffffffffffffffff1673ffffffffffffffffffffffffffffffffffffffff1681526020019081526020016000208190555061193f8a8a8a611b98565b50505050505050505050565b60405180807f4d494e5445525f524f4c45000000000000000000000000000000000000000000815250600b019050604051809103902081565b6119ab60066000848152602001908152602001600020600201546119a6611b89565b61138c565b611a00576040517f08c379a00000000000000000000000000000000000000000000000000000000081526004018080602001828103825260308152602001806129b46030913960400191505060405180910390fd5b611a0a82826121a4565b5050565b6000600160008473ffffffffffffffffffffffffffffffffffffffff1673ffffffffffffffffffffffffffffffffffffffff16815260200190815260200160002060008373ffffffffffffffffffffffffffffffffffffffff1673ffffffffffffffffffffffffffffffffffffffff16815260200190815260200160002054905092915050565b60006018600036905010158015611ab15750611ab033611259565b5b15611ac557601436033560601c9050611acd565b339050611ace565b5b90565b600080828401905083811015611b4f576040517f08c379a000000000000000000000000000000000000000000000000000000000815260040180806020018281038252601b8152602001807f536166654d6174683a206164646974696f6e206f766572666c6f77000000000081525060200191505060405180910390fd5b8091505092915050565b6000611b81836000018373ffffffffffffffffffffffffffffffffffffffff1660001b612622565b905092915050565b6000611b93611a95565b905090565b600073ffffffffffffffffffffffffffffffffffffffff168373ffffffffffffffffffffffffffffffffffffffff161415611c1e576040517f08c379a0000000000000000000000000000000000000000000000000000000008152600401808060200182810382526024815260200180612aa46024913960400191505060405180910390fd5b600073ffffffffffffffffffffffffffffffffffffffff168273ffffffffffffffffffffffffffffffffffffffff161415611ca4576040517f08c379a00000000000000000000000000000000000000000000000000000000081526004018080602001828103825260228152602001806129476022913960400191505060405180910390fd5b80600160008573ffffffffffffffffffffffffffffffffffffffff1673ffffffffffffffffffffffffffffffffffffffff16815260200190815260200160002060008473ffffffffffffffffffffffffffffffffffffffff1673ffffffffffffffffffffffffffffffffffffffff168152602001908152602001600020819055508173ffffffffffffffffffffffffffffffffffffffff168373ffffffffffffffffffffffffffffffffffffffff167f8c5be1e5ebec7d5bd14f71427d1e84f3dd0314c0f7b2291e5b200ac8c7c3b925836040518082815260200191505060405180910390a3505050565b600073ffffffffffffffffffffffffffffffffffffffff168373ffffffffffffffffffffffffffffffffffffffff161415611e15576040517f08c379a0000000000000000000000000000000000000000000000000000000008152600401808060200182810382526025815260200180612a7f6025913960400191505060405180910390fd5b600073ffffffffffffffffffffffffffffffffffffffff168273ffffffffffffffffffffffffffffffffffffffff161415611e9b576040517f08c379a00000000000000000000000000000000000000000000000000000000081526004018080602001828103825260238152602001806128d36023913960400191505060405180910390fd5b611ea6838383612692565b611f118160405180606001604052806026815260200161298e602691396000808773ffffffffffffffffffffffffffffffffffffffff1673ffffffffffffffffffffffffffffffffffffffff168152602001908152602001600020546120509092919063ffffffff16565b6000808573ffffffffffffffffffffffffffffffffffffffff1673ffffffffffffffffffffffffffffffffffffffff16815260200190815260200160002081905550611fa4816000808573ffffffffffffffffffffffffffffffffffffffff1673ffffffffffffffffffffffffffffffffffffffff16815260200190815260200160002054611ad190919063ffffffff16565b6000808473ffffffffffffffffffffffffffffffffffffffff1673ffffffffffffffffffffffffffffffffffffffff168152602001908152602001600020819055508173ffffffffffffffffffffffffffffffffffffffff168373ffffffffffffffffffffffffffffffffffffffff167fddf252ad1be2c89b69c2b068fc378daa952ba7f163c4a11628f55a4df523b3ef836040518082815260200191505060405180910390a3505050565b60008383111582906120fd576040517f08c379a00000000000000000000000000000000000000000000000000000000081526004018080602001828103825283818151815260200191508051906020019080838360005b838110156120c25780820151818401526020810190506120a7565b50505050905090810190601f1680156120ef5780820380516001836020036101000a031916815260200191505b509250505060405180910390fd5b5060008385039050809150509392505050565b6121388160066000858152602001908152602001600020600001611b5990919063ffffffff16565b156121a057612145611b89565b73ffffffffffffffffffffffffffffffffffffffff168173ffffffffffffffffffffffffffffffffffffffff16837f2f8788117e7eff1d82e926ec794901d17c78024a50270940304540a733656f0d60405160405180910390a45b5050565b6121cc816006600085815260200190815260200160002060000161269790919063ffffffff16565b15612234576121d9611b89565b73ffffffffffffffffffffffffffffffffffffffff168173ffffffffffffffffffffffffffffffffffffffff16837ff6391f5c32d9c69d2a47ea670b442974b53935d1edc7fd64eb21e047a839171b60405160405180910390a45b5050565b600073ffffffffffffffffffffffffffffffffffffffff168273ffffffffffffffffffffffffffffffffffffffff1614156122be576040517f08c379a0000000000000000000000000000000000000000000000000000000008152600401808060200182810382526021815260200180612a5e6021913960400191505060405180910390fd5b6122ca82600083612692565b61233581604051806060016040528060228152602001612925602291396000808673ffffffffffffffffffffffffffffffffffffffff1673ffffffffffffffffffffffffffffffffffffffff168152602001908152602001600020546120509092919063ffffffff16565b6000808473ffffffffffffffffffffffffffffffffffffffff1673ffffffffffffffffffffffffffffffffffffffff1681526020019081526020016000208190555061238c816002546126c790919063ffffffff16565b600281905550600073ffffffffffffffffffffffffffffffffffffffff168273ffffffffffffffffffffffffffffffffffffffff167fddf252ad1be2c89b69c2b068fc378daa952ba7f163c4a11628f55a4df523b3ef836040518082815260200191505060405180910390a35050565b600073ffffffffffffffffffffffffffffffffffffffff168273ffffffffffffffffffffffffffffffffffffffff16141561249f576040517f08c379a000000000000000000000000000000000000000000000000000000000815260040180806020018281038252601f8152602001807f45524332303a206d696e7420746f20746865207a65726f20616464726573730081525060200191505060405180910390fd5b6124ab60008383612692565b6124c081600254611ad190919063ffffffff16565b600281905550612517816000808573ffffffffffffffffffffffffffffffffffffffff1673ffffffffffffffffffffffffffffffffffffffff16815260200190815260200160002054611ad190919063ffffffff16565b6000808473ffffffffffffffffffffffffffffffffffffffff1673ffffffffffffffffffffffffffffffffffffffff168152602001908152602001600020819055508173ffffffffffffffffffffffffffffffffffffffff16600073ffffffffffffffffffffffffffffffffffffffff167fddf252ad1be2c89b69c2b068fc378daa952ba7f163c4a11628f55a4df523b3ef836040518082815260200191505060405180910390a35050565b60006125d28360000183612711565b60001c905092915050565b6000612605836000018373ffffffffffffffffffffffffffffffffffffffff1660001b612794565b905092915050565b600061261b826000016127b7565b9050919050565b600061262e8383612794565b61268757826000018290806001815401808255809150506001900390600052602060002001600090919091909150558260000180549050836001016000848152602001908152602001600020819055506001905061268c565b600090505b92915050565b505050565b60006126bf836000018373ffffffffffffffffffffffffffffffffffffffff1660001b6127c8565b905092915050565b600061270983836040518060400160405280601e81526020017f536166654d6174683a207375627472616374696f6e206f766572666c6f770000815250612050565b905092915050565b600081836000018054905011612772576040517f08c379a00000000000000000000000000000000000000000000000000000000081526004018080602001828103825260228152602001806128b16022913960400191505060405180910390fd5b82600001828154811061278157fe5b9060005260206000200154905092915050565b600080836001016000848152602001908152602001600020541415905092915050565b600081600001805490509050919050565b600080836001016000848152602001908152602001600020549050600081146128a4576000600182039050600060018660000180549050039050600086600001828154811061281357fe5b906000526020600020015490508087600001848154811061283057fe5b906000526020600020018190555060018301876001016000838152602001908152602001600020819055508660000180548061286857fe5b600190038181906000526020600020016000905590558660010160008781526020019081526020016000206000905560019450505050506128aa565b60009150505b9291505056fe456e756d657261626c655365743a20696e646578206f7574206f6620626f756e647345524332303a207472616e7366657220746f20746865207a65726f2061646472657373416363657373436f6e74726f6c3a2073656e646572206d75737420626520616e2061646d696e20746f206772616e7445524332303a206275726e20616d6f756e7420657863656564732062616c616e636545524332303a20617070726f766520746f20746865207a65726f2061646472657373546f6b656e3a206d7573742068617665206275726e657220726f6c6520746f206275726e2e45524332303a207472616e7366657220616d6f756e7420657863656564732062616c616e6365416363657373436f6e74726f6c3a2073656e646572206d75737420626520616e2061646d696e20746f207265766f6b655065726d69742861646472657373206f776e65722c61646472657373207370656e6465722c75696e743235362076616c75652c75696e74323536206e6f6e63652c75696e7432353620646561646c696e652945524332303a207472616e7366657220616d6f756e74206578636565647320616c6c6f77616e636545524332303a206275726e2066726f6d20746865207a65726f206164647265737345524332303a207472616e736665722066726f6d20746865207a65726f206164647265737345524332303a20617070726f76652066726f6d20746865207a65726f2061646472657373546f6b656e3a206d7573742068617665206d696e74657220726f6c6520746f206d696e742e45524332303a2064656372656173656420616c6c6f77616e63652062656c6f77207a65726f416363657373436f6e74726f6c3a2063616e206f6e6c792072656e6f756e636520726f6c657320666f722073656c66a26469706673582212202c8bda7b9f0c72b93c1665cf9d8177624e3afead49b9f5ffb8b64891f3b9724364736f6c634300060a0033454950373132446f6d61696e28737472696e67206e616d652c737472696e672076657273696f6e2c75696e7432353620636861696e49642c6164647265737320766572696679696e67436f6e747261637429",
  "immutableReferences": {},
  "source": "// SPDX-License-Identifier:MIT\npragma solidity ^0.6.10;\n\nimport \"@openzeppelin/contracts/token/ERC20/ERC20.sol\";\nimport \"@openzeppelin/contracts/access/AccessControl.sol\";\nimport \"@openzeppelin/contracts/math/SafeMath.sol\";\n\nimport \"@opengsn/gsn/contracts/BaseRelayRecipient.sol\";\nimport \"@opengsn/gsn/contracts/interfaces/IKnowForwarderAddress.sol\";\n\ncontract Token is ERC20, AccessControl, BaseRelayRecipient, IKnowForwarderAddress {\n    using SafeMath for uint256;\n\n    bytes32 public constant MINTER_ROLE = keccak256(\"MINTER_ROLE\");\n    bytes32 public constant BURNER_ROLE = keccak256(\"BURNER_ROLE\");\n\n    bytes32 public DOMAIN_SEPARATOR;\n    bytes public constant EIP712_REVISION = bytes(\"1\");\n    bytes32 public constant PERMIT_TYPEHASH = keccak256(\"Permit(address owner,address spender,uint256 value,uint256 nonce,uint256 deadline)\");\n\n    mapping (address => uint) public _nonces;\n\n    constructor(uint256 supply, address forwarder) public ERC20(\"XLoad\", \"XLD\") {\n        _mint(_msgSender(), supply);\n        _setupRole(DEFAULT_ADMIN_ROLE, _msgSender());\n\n        _setupRole(MINTER_ROLE, _msgSender());\n        _setupRole(BURNER_ROLE, _msgSender());\n\n        DOMAIN_SEPARATOR = keccak256(\n            abi.encode(\n                keccak256('EIP712Domain(string name,string version,uint256 chainId,address verifyingContract)'),\n                keccak256(bytes(name())),\n                keccak256(EIP712_REVISION),\n                chainId(),\n                address(this)\n            )\n        );\n\n        trustedForwarder = forwarder;\n    }\n\n    function mintTo(address account, uint256 amount) external returns (bool) {\n        require(hasRole(MINTER_ROLE, _msgSender()), 'Token: must have minter role to mint.');\n        _mint(account, amount);\n        return true;\n    }\n\n    function burn(uint256 amount) external {\n        require(hasRole(BURNER_ROLE, _msgSender()), 'Token: must have burner role to burn.');\n        _burn(_msgSender(), amount);\n    }\n\n    function versionRecipient() external override view returns (string memory) {\n        return \"2.0.0\";\n    }\n\n    function getTrustedForwarder() public override view returns (address) {\n        return trustedForwarder;\n    }\n\n    function _msgSender() internal view override(Context, BaseRelayRecipient) returns (address payable) {\n        return BaseRelayRecipient._msgSender();\n    }\n\n    function _msgData() internal view override(Context, BaseRelayRecipient) returns (bytes memory) {\n        return BaseRelayRecipient._msgData();\n    } \n\n    function permit(address owner, address spender, uint value, uint deadline, uint8 v, bytes32 r, bytes32 s) external {\n        require(deadline >= block.timestamp, 'XLD: PERMIT_EXPIRED');\n        uint256 currentValidNonce = _nonces[owner];\n        bytes32 digest = keccak256(\n            abi.encodePacked(\n                '\\x19\\x01',\n                DOMAIN_SEPARATOR,\n                keccak256(abi.encode(PERMIT_TYPEHASH, owner, spender, value, currentValidNonce, deadline))\n            )\n        );\n\n        address recoveredAddress = ecrecover(digest, v, r, s);\n        require(recoveredAddress != address(0) && recoveredAddress == owner, 'XLD: INVALID_SIGNATURE');\n\n        _nonces[owner] = currentValidNonce.add(1);\n        _approve(owner, spender, value);\n    }\n\n    function chainId() public pure returns (uint _chainId) {\n        assembly {\n            _chainId := chainid()\n        }\n    }\n\n}",
  "sourcePath": "/Users/johnpaulcas/Desktop/Workstation/XLoad/xload-contracts/contracts/Token.sol",
  "compiler": {
    "name": "solc",
    "version": "0.6.10+commit.00c0fcaf.Emscripten.clang"
  },
  "schemaVersion": "3.3.1",
  "updatedAt": "2020-12-11T08:18:03.301Z",
  "networkType": "ethereum",
  "devdoc": {
    "methods": {
      "allowance(address,address)": {
        "details": "See {IERC20-allowance}."
      },
      "approve(address,uint256)": {
        "details": "See {IERC20-approve}. Requirements: - `spender` cannot be the zero address."
      },
      "balanceOf(address)": {
        "details": "See {IERC20-balanceOf}."
      },
      "decimals()": {
        "details": "Returns the number of decimals used to get its user representation. For example, if `decimals` equals `2`, a balance of `505` tokens should be displayed to a user as `5,05` (`505 / 10 ** 2`). Tokens usually opt for a value of 18, imitating the relationship between Ether and Wei. This is the value {ERC20} uses, unless {_setupDecimals} is called. NOTE: This information is only used for _display_ purposes: it in no way affects any of the arithmetic of the contract, including {IERC20-balanceOf} and {IERC20-transfer}."
      },
      "decreaseAllowance(address,uint256)": {
        "details": "Atomically decreases the allowance granted to `spender` by the caller. This is an alternative to {approve} that can be used as a mitigation for problems described in {IERC20-approve}. Emits an {Approval} event indicating the updated allowance. Requirements: - `spender` cannot be the zero address. - `spender` must have allowance for the caller of at least `subtractedValue`."
      },
      "getRoleAdmin(bytes32)": {
        "details": "Returns the admin role that controls `role`. See {grantRole} and {revokeRole}. To change a role's admin, use {_setRoleAdmin}."
      },
      "getRoleMember(bytes32,uint256)": {
        "details": "Returns one of the accounts that have `role`. `index` must be a value between 0 and {getRoleMemberCount}, non-inclusive. Role bearers are not sorted in any particular way, and their ordering may change at any point. WARNING: When using {getRoleMember} and {getRoleMemberCount}, make sure you perform all queries on the same block. See the following https://forum.openzeppelin.com/t/iterating-over-elements-on-enumerableset-in-openzeppelin-contracts/2296[forum post] for more information."
      },
      "getRoleMemberCount(bytes32)": {
        "details": "Returns the number of accounts that have `role`. Can be used together with {getRoleMember} to enumerate all bearers of a role."
      },
      "grantRole(bytes32,address)": {
        "details": "Grants `role` to `account`. If `account` had not been already granted `role`, emits a {RoleGranted} event. Requirements: - the caller must have ``role``'s admin role."
      },
      "hasRole(bytes32,address)": {
        "details": "Returns `true` if `account` has been granted `role`."
      },
      "increaseAllowance(address,uint256)": {
        "details": "Atomically increases the allowance granted to `spender` by the caller. This is an alternative to {approve} that can be used as a mitigation for problems described in {IERC20-approve}. Emits an {Approval} event indicating the updated allowance. Requirements: - `spender` cannot be the zero address."
      },
      "name()": {
        "details": "Returns the name of the token."
      },
      "renounceRole(bytes32,address)": {
        "details": "Revokes `role` from the calling account. Roles are often managed via {grantRole} and {revokeRole}: this function's purpose is to provide a mechanism for accounts to lose their privileges if they are compromised (such as when a trusted device is misplaced). If the calling account had been granted `role`, emits a {RoleRevoked} event. Requirements: - the caller must be `account`."
      },
      "revokeRole(bytes32,address)": {
        "details": "Revokes `role` from `account`. If `account` had been granted `role`, emits a {RoleRevoked} event. Requirements: - the caller must have ``role``'s admin role."
      },
      "symbol()": {
        "details": "Returns the symbol of the token, usually a shorter version of the name."
      },
      "totalSupply()": {
        "details": "See {IERC20-totalSupply}."
      },
      "transfer(address,uint256)": {
        "details": "See {IERC20-transfer}. Requirements: - `recipient` cannot be the zero address. - the caller must have a balance of at least `amount`."
      },
      "transferFrom(address,address,uint256)": {
        "details": "See {IERC20-transferFrom}. Emits an {Approval} event indicating the updated allowance. This is not required by the EIP. See the note at the beginning of {ERC20}. Requirements: - `sender` and `recipient` cannot be the zero address. - `sender` must have a balance of at least `amount`. - the caller must have allowance for ``sender``'s tokens of at least `amount`."
      }
    }
  },
  "userdoc": {
    "methods": {}
  }
}